:020000041028C2
:1000000000000C28D184281059912810A98E28109E
:100010005D91281061912810659128100000000062
:10002000000000000000000000000000618F2810A8
:1000300069912810000000006D912810719128101E
:10004000178228103D822810638228108982281088
:10005000AF822810D5822810FB8228102183281017
:1000600075912810799128107D9128108191281080
:1000700085912810899128108D9128109191281030
:100080002DE9F94FADF5406D99B00D0017006846A8
:10009000582101F0F9F92800C0B20A902800C0B236
:1000A0000B903800C0B20C903800C0B20D905FF0D9
:1000B000000A8DF858508DF859508DF85A7019A8CB
:1000C000032101FB0AF1084416A9032201F01EFADC
:1000D0001AF1010ABC24DFF8FCBB3800C0B260434F
:1000E00058442900C9B201224254DFF8EC9B380081
:1000F000C0B2604348442900C9B2465C0098401C25
:100100000090019850FA86F0019002992A00D2B22C
:100110003000C0B200FB0211029103993A00D2B242
:100120003000C0B200FB02110391DDE90423280076
:10013000C0B22900C9B248433100C9B24843C1170F
:1001400010185941CDE90401DDE906233800C0B299
:100150003900C9B248433100C9B24843C117101829
:100160005941CDE90601DDE90801EDB2FFB27D4359
:10017000F6B206FB05F2D31780185941CDE9080104
:10018000BAF1010FC0F24A83BAF1010A18A819A9FD
:10019000032202FB0AF21144032201F0B7F99DF891
:1001A00062509DF860609DF8618078E0761E2800BE
:1001B000C0B2604358443100C9B201224254280001
:1001C000C0B2604348443100C9B2475C0098401C4B
:1001D0000090019850FA87F0019002993200D2B253
:1001E0003800C0B200FB0211029103992A00D2B27A
:1001F0003800C0B200FB02110391DDE904010200E6
:100200000B003000C0B23100C9B248433900C9B256
:100210004843C11710185941CDE90401DDE9060131
:1002200002000B002800C0B22900C9B248433900BF
:10023000C9B24843C11710185941CDE90601DDE99B
:10024000080102000B003000C0B22900C9B24843C7
:10025000FFB27843C11710185941CDE908013000A9
:10026000C0B20A99884202DA3000C0B20A900B98F4
:100270003100C9B2884202DA3000C0B20B902800C7
:10028000C0B20C99884202DA2800C0B20C900D98D6
:100290002900C9B2884202DA2800C0B20D903000AD
:1002A000C0B2002825D02800C0B2604358443100B5
:1002B000C9B2084410F8010C00281AD12800C0B2B5
:1002C000604348443100C9B2084410F8010C9DF85D
:1002D000681C88420DD39DF8900C2900C9B2614377
:1002E00049443200D2B2114411F8011C8842BFF4D3
:1002F0005DAF4046C0B2BB2880F2A0802800C0B2EB
:10030000604358444146C9B208444078002840F050
:1003100095802800C0B2604348444146C9B20844B1
:1003200040789DF8681C8842C0F088809DF8900C49
:100330002900C9B2614349444246D2B211444978C6
:1003400088427BD318F101082800C0B260435844AA
:100350004146C9B2012242542800C0B26043484419
:100360004146C9B2475C0098401C0090019850FA81
:1003700087F0019002994246D2B23800C0B200FB29
:100380000211029103992A00D2B23800C0B200FBD8
:1003900002110391DDE9040102000B004046C0B2E6
:1003A0004146C9B248433900C9B24843C117101881
:1003B0005941CDE90401DDE9060102000B002800E6
:1003C000C0B22900C9B248433900C9B24843C11775
:1003D00010185941CDE90601DDE9080102000B00C2
:1003E0004046C0B22900C9B24843FFB27843C117A2
:1003F00010185941CDE908014046C0B20A99884217
:1004000002DA4046C0B20A900B984146C9B288420F
:1004100002DA4046C0B20B902800C0B20C99884264
:1004200002DA2800C0B20C900D982900C9B28842A7
:10043000BFF65FAF2800C0B20D905AE72800C0B2E7
:10044000002800F0F7803700C5E02800C0B2604304
:1004500058443900C9B20844012100F8BC1C2800E6
:10046000C0B2604348443900C9B2084410F8BCCC5B
:100470000099491C0091019850FA8CF10191029960
:100480003A00D2B26046C0B200FB02110291039959
:100490002A00D2B2521E6046C0B200FB0211039184
:1004A000DDE9040102000B003800C0B23900C9B216
:1004B00048436146C9B24843C11710185941CDE9B4
:1004C0000401DDE9060102000B002800C0B2401E55
:1004D0002900C9B2491E48436146C9B24843C11701
:1004E00010185941CDE90601DDE9080102000B00B1
:1004F0003800C0B22900C9B2491E48435FFA8CFCDB
:100500000CFB00F0C11710185941CDE90801380063
:10051000C0B20A99884202DA3800C0B20A900B9839
:100520003900C9B2884202DA3800C0B20B90280004
:10053000C0B2401E0C99884203DA2800C0B2401EA7
:100540000C900D982900C9B2491E884203DA280090
:10055000C0B2401E0D907F1C40463900C0B2C9B2E7
:10056000884225D32800C0B2604358443900C9B23C
:10057000084410F8BC0C00281AD12800C0B260430F
:1005800048443900C9B2084410F8BC0C9DF8681CF6
:1005900088420DD39DF8900C2900C9B261434944AB
:1005A0003A00D2B2114411F8BC1C8842BFF44DAFDE
:1005B0008DF85CE0781E8DF85D00681E8DF85E0099
:1005C00019A8032101FB0AF1084417A9032200F02E
:1005D0009DFF1AF1010A40463900C0B2C9B28842F3
:1005E00028D32800C0B2604358443900C9B2084437
:1005F00010F8BC0C00281BD12800C0B2604348444E
:100600003900C9B2084410F8BC0C9DF8681C884237
:100610000ED39DF8900C2900C9B2614349443A00B9
:10062000D2B2114411F8BC1C884201D3BE4693E7F4
:100630007F1CD0E72800C0B27728BFF6A1ADBDE08F
:100640002800C0B2604358443100C9B208440121B7
:1006500080F8BC102800C0B2604348443100C9B2E1
:10066000084490F8BC700099491C0091019850FA18
:1006700087F1019102993200D2B23800C0B200FB7A
:100680000211029103992A00D2B2521C3800C0B262
:1006900000FB02110391DDE904233000C0B23100F8
:1006A000C9B248433900C9B24843C117101859416B
:1006B000CDE90401DDE906232800C0B2401C290071
:1006C000C9B2491C48433900C9B24843C117101880
:1006D0005941CDE90601DDE908013200D2B22B0013
:1006E000DBB25B1C5A43FFB27A43D31780185941DF
:1006F000CDE908013000C0B20A99884202DA31001F
:10070000C9B20A910B983100C9B2884202DA3100AD
:10071000C9B20B912800C0B2401C0C99884203DA80
:100720002900C9B2491C0C910D982900C9B2491C75
:10073000884203DA2900C9B2491C0D91761C404653
:100740003100C0B2C9B2884225D32800C0B260438C
:1007500058443100C9B2084490F8BC0000281AD1AE
:100760002800C0B2604348443100C9B2084490F840
:10077000BC009DF8681C88420DD39DF8900C2900A0
:10078000C9B2614349443200D2B2114491F8BC105D
:100790008842BFF455AF8DF858C0701E8DF85900CF
:1007A000681C8DF85A0019A8032101FB0AF10844BE
:1007B00016A9032200F0AAFE1AF1010A40463100F0
:1007C000C0B2C9B28842FFF4DBAC2800C0B26043BB
:1007D00058443100C9B2084490F8BC0000281BD12D
:1007E0002800C0B2604348443100C9B2084490F8C0
:1007F000BC009DF8681C88420ED39DF8900C29001F
:10080000C9B2614349443200D2B2114491F8BC10DC
:10081000884201D3B44692E7761CCFE701980128BD
:1008200017DB9DED020AB8EEC00ADDED010AF8EE15
:10083000E00A80EE200A8DED0E0A9DED030AB8EE67
:10084000C00ADDED010AF8EEE00A80EE200A8DED27
:100850000F0ADDF8640C6946582200F067FE0DF5BA
:10086000406D1BB0BDE8F08F2DE9F84FAEB006002B
:100870000F0014001D0018A8582100F005FE38785C
:1008800000282AD07868FA681218B86839690918F7
:100890007869101A002801D5002001E07869101A43
:1008A000B86178698018BC2801DBBB2201E0786957
:1008B0008218FA617869081A002801D5002001E041
:1008C0007869081A386278694018782801DB77213E
:1008D00001E078694118796207E00020B861BB2027
:1008E000F8610020386277207862D7F8208001E034
:1008F00018F10108786A4045C0F22581D7F81890B0
:10090000CEE000EE10AAB8EEC00A00EE90BAF8EE03
:10091000E00A80EE200A0BFB0AF000EE900A9DED43
:10092000021AB8EEC11AF8EEE00AC1EE200A9FEDF5
:10093000A41AB4EE410AF1EE10FAC0F2AF80B0EEA4
:10094000001AB4EE410AF1EE10FA40F1A7809FEDD3
:100950009D0AF4EE400AF1EE10FAC0F29F80B7EE65
:10096000000AF4EE400AF1EE10FA40F197809DED96
:100970000C0AB8EEC00A00EE90AAF8EEE00AB0EE5B
:10098000001AC0EE810A30EE200ADDED0E0AF8EE04
:10099000E00A01EE10BAB8EEC11AF0EE001A81EECC
:1009A000211A70EE810A9DED101A31EE401ADDED2C
:1009B000101A31EEC00A21EE000A9DED111A31EE37
:1009C000601ADDED111A71EEE00A01EE200AB7EEB1
:1009D000C00A00F0F3FDB7EEC00B00EE90AAF8EEEF
:1009E000E00A9FEDBB1A60EE810AB4EE600AF1EEF8
:1009F00010FA53D51898029988424FDA18A802A91C
:100A0000582200F093FD49E0DDF834A00C98BAEBD1
:100A1000000A1AF1010ADDF83CB00E98BBEB000B9E
:100A20001BF1010B0298801FB0F5F77F36D2BAF1A7
:100A3000030F33DBBBF1030F30DB002C3FF461AF5E
:100A400020680128FFF65DAF9DED100AD4ED0E0A77
:100A500030EE600ADDED100A94ED0E1A70EEC10A58
:100A600020EE200ADDED110A94ED0F1A70EEC10A96
:100A70009DED111AD4ED0F1A31EE611A00EE810AC4
:100A8000B7EEC00A00F09AFDB7EEC00BF2EE080A0E
:100A9000B4EE600AF1EE10FA7FF533AF19F10109F7
:100AA000F8694845FFF624AFBC218A4801FB08F2EB
:100AB000104410F809000028F0D1DFF88C0901FB80
:100AC00008F1084410F80900C0B27828E6DBFF20DE
:100AD0000090782340460200D2B248460100C9B2D5
:100AE00002A8FFF7CDFA002D8ED0286801288BDBF5
:100AF0009DED100AD5ED0E0A30EE600ADDED100A0C
:100B000095ED0E1A70EEC10A20EE200ADDED110AF5
:100B100095ED0F1A70EEC10A9DED111AD5ED0F1A61
:100B200031EE611A00EE810AB7EEC00A00F046FD10
:100B3000B7EEC00BF2EE0E0AB4EE600AF1EE10FA58
:100B40007FF562AFAAE7189801282EDB38780028D5
:100B500018D097ED010AB8EEC00ADDED260A30EE96
:100B6000C00ABDEEC00A87ED030A97ED020AB8EE8F
:100B7000C00ADDED270A30EEC00ABDEEC00A87EDDF
:100B8000040A03E00020F86000203861012038707A
:100B90009DED260ABDEEC00A87ED010A9DED270AEC
:100BA000BDEEC00A87ED020A01E000203870300077
:100BB00018A9582200F0BAFC2FB0BDE8F08F000051
:100BC0000100003F9B99193F70B5AEB0040018A812
:100BD000582100F059FC002500E06D1C782D6FDADB
:100BE000002660E03C4801FB05F10844805DC0B28E
:100BF000C82863DBFF200090C82328000200D2B27F
:100C000030000100C9B202A8FFF73AFA0D990C981A
:100C1000091A491C0F9A0E98121A521C02981F3872
:100C200040F20133984249D2062947DB062A45DBC8
:100C300000EE101AB8EEC00A00EE902AF8EEE00AB4
:100C400080EE200A514300EE901A9DED021AB8EE94
:100C5000C11AF8EEE00AC1EE200A9FED9F1AB4EE29
:100C6000410AF1EE10FA29DBB2EE041AB4EE410AA1
:100C7000F1EE10FA22D59FED990AF4EE400AF1EE5A
:100C800010FA1BDB9FED960AF4EE400AF1EE10FA23
:100C900014D518980299884210DA18A802A9582287
:100CA00000F044FC0AE0BC2E97DABC21DFF89C0778
:100CB00001FB05F21044805D002893D0761CF2E71A
:100CC000200018A9582200F031FC2EB070BD0000A1
:100CD0009A99993E6C5F08284C07082870B52DED4D
:100CE000048B0400606801280BDA002020640020D7
:100CF00060640020A0640020E064DFF854072065F1
:100D0000E7E09FED789A94ED0E8AD4ED0F8AD4E94E
:100D1000040100F063FC00EE100AD4ED020AF8EEC4
:100D2000E00A00EEC80A20EE090A84ED100AD4E9B0
:100D3000060100F053FC00EE100AD4ED030AF8EEB1
:100D4000E00A00EEE80A20EE090A84ED110AD4E96F
:100D5000080100F043FC00EE100AD4ED020AF8EEA0
:100D6000E00A00EEE80A20EE090A84ED120A94ED8A
:100D7000100AD4ED110A30EE209A94ED100AD4ED49
:100D8000110A30EE600AD4ED100A94ED111A70EEDB
:100D9000C10A20EE200AD4ED120AB1EE001A60EE6C
:100DA000810A94ED121A00EE810AB7EEC00A00F033
:100DB00005FCB7EEC00B39EE400AF0EE000A80EEFB
:100DC000200AD4ED120AB1EE609AD4ED100A70EE4A
:100DD000C09A29EE090A09EEA90AB7EEC00A00F086
:100DE000EDFBF7EEC00B9FED400AF4EE400AF1EE8A
:100DF00010FA04DB89EE200AC9EEA00A03E09FED99
:100E00003B0AFFEE000A002000219FED381ADFEDBB
:100E1000371A226B00E0521C636B934236DBA36AE5
:100E200008E0B5EE402AF1EE10FA2DD5491C71EE1E
:100E3000A21A29E0E56A9D42EDDBDFF80C56BC26DC
:100E400006FB02F63544ED5C782D1DDB02EE103A10
:100E5000B8EEC22A72EE482A02EE102AB8EEC22A72
:100E600032EE683A22EE802A03EE202A23EE003A80
:100E700000EEE23A63EE032AB5EE402AF1EE10FAF4
:100E8000CFDD401C31EE221A5B1CD3E7012806DBC4
:100E900002EE100AB8EEC22A81EE021A01E09FEDBE
:100EA000131A012906DB02EE101AB8EEC22AC1EEAF
:100EB000821A01E0DFED0D1AF4EE411AF1EE10FA9C
:100EC00003D5B1EE400AF1EE600A84ED130AC4EDD9
:100ED000140ABDEC048B70BDCECCCC3D9B99193E61
:100EE0009A99193F8180803B7012833A000000007C
:100EF0002DE9F0412DED048BF6B0DFF8580500F038
:100F00009BFB00F093FD00F012FF402340225FF4B2
:100F1000E131042001F032FCDFF83C15DFF83C053C
:100F200001F060FF06E0DFF8380501F0C1FF642042
:100F300002F0AFF8DFF82C35DFF82C25DFF82C15A0
:100F4000A5A001F08AFE0028EDD1052002F030F9BD
:100F5000DFF81C557823BC222900022002F0EDF9AD
:100F600022A8DFF81015282200F0E0FA18A8DFF810
:100F70000815282200F0DAFA1E21002258AC2000C1
:100F800002F016FA9FED958AFFEE008AB0EE689A9D
:100F9000DFED939A01E002F0DFF945F6200632001A
:100FA000DFF8D8442100DFF8A074380000F0AEFA72
:100FB00031000022DFF89474B846404602F0F8F998
:100FC00002A8FFF701FE31000022380002F0F0F91C
:100FD00042A8582100F058FA2CA8582100F054FAE1
:100FE0009DF8880000281AD19DF86000002816D0CE
:100FF00002AB002218A960A8FFF736FC2CA860A954
:10100000582200F093FA02AB2CAA22A960A8FFF79D
:101010002BFC42A860A9582200F088FA15E002AB28
:10102000002222A960A8FFF71FFC42A860A958224D
:1010300000F07CFA02AB42AA18A960A8FFF714FCE2
:101040002CA860A9582200F071FA4298012829DBE7
:101050002C98012826DB9DED3A0ADDED500AB4EE0E
:10106000600AF1EE10FA1DD560A842A9582200F0DE
:101070005DFA42A82CA9582200F058FA2CA860A9C1
:10108000582200F053FA60A822A9282200F04EFA54
:1010900022A818A9282200F049FA18A860A9282235
:1010A00000F044FA0298012838DB02A8FFF716FE88
:1010B0009DED150A29EE800AF7EE000A70EEE90AA6
:1010C00000EE880AB0EE408A9DED160A29EE800AED
:1010D000F7EE000A70EEE90A00EE890AB0EE409AD7
:1010E00028EE080A09EE090AB7EEC00A00F066FA0F
:1010F000B7EEC00BDFED3B0AB4EE600AF1EE10FA7A
:1011000008DBC8EE000ACDED150A89EE000A8DED68
:10111000160A03E000201590CDED168A42980028AB
:1011200005D12C98002802D10120D54908709FEDE7
:101130002B0ADFED2A0A60A8582100F0A5F9429891
:10114000012857DB2C98012854DB0298012851DB39
:101150009DED501ADDED101A31EE611ADDED501AD9
:101160009DED102A71EEC21A21EE211ADDED511A01
:101170009DED112A71EEC21A9DED512ADDED112A65
:1011800032EE622A01EE821ADDED3A1A9DED102A46
:1011900071EEC21A9DED3A2ADDED102A32EE622A76
:1011A00061EE821A9DED3B2ADDED112A32EE622AB4
:1011B000DDED3B2A9DED113A72EEC32A42EE221A72
:1011C000B4EE611AF1EE10FA0ED560A842A95822C9
:1011D00000F0ACF91FE000BF5443500000000000D5
:1011E000CDCCCC3E7012833A60A82CA9582200F0D6
:1011F0009DF910E04298012805DB60A842A9582219
:1012000000F094F907E02C98012804DB60A82CA9D1
:10121000582200F08BF96098012820DB0298012801
:101220001DDB9DED6E0ADDED100A70EE600A9DED8E
:101230006F0A9DED111A30EE411ADDED161A9DED83
:10124000150AB1EE402A9DED150A20EE800ADDED6B
:10125000162A01EE220A60EEA10A41EE020AB7EE5A
:10126000E01A8DED001BB7EEC00A53EC102B854938
:1012700058A802F0D1F858A9042001F0D0F83200A3
:1012800021002C00200000F041F99DF88800002882
:1012900022D028980BE0BC21FF222A9B4B432B44F1
:1012A0001A542B9B01FB03F129440A54401C299931
:1012B0008142F0DA2A9A0CE0BC20FF2100FB02F305
:1012C0002B44289C195500FB02F02844299BC1544B
:1012D000521C2B989042EFDA9DF86000002822D033
:1012E0001E9A0BE0BC20FF21209B43432B449954C2
:1012F000219B00FB03F028448154521C1F9890420C
:10130000F0DA209A0CE0BC20FF2100FB02F32B4412
:101310001E9C195500FB02F028441F9BC154521C0F
:1013200021989042EFDA4298012822DB4C9A0BE098
:10133000BC20FF214E9B43432B4499544F9B00FB01
:1013400003F028448154521C4D989042F0DA4E9A92
:101350000CE0BC20FF2100FB02F32B444C9C1955F0
:1013600000FB02F028444D9BC154521C4F98904200
:10137000EFDA2C98012822DB369A0BE0BC20FF2103
:10138000389B43432B449954399B00FB03F028447A
:101390008154521C37989042F0DA389A0CE0BC2005
:1013A000FF2100FB02F32B44369C195500FB02F091
:1013B0002844379BC154521C39989042EFDA029866
:1013C000012822DB0C9A0BE0BC20FF210E9B43433B
:1013D0002B4499540F9B00FB03F028448154521C6A
:1013E0000D989042F0DA0E9A0CE0BC20FF2100FB31
:1013F00002F32B440C9C195500FB02F028440D9B72
:10140000C154521C0F989042EFDA002100E0491CB1
:101410007829BFF6C0AD002205E000FB01F02844AA
:10142000002383540DE0BC2AF1DABC2000FB01F359
:101430002B449B5C792BF0DB00FB01F02844FF235D
:101440008354521CEFE700004C0708286C5F082803
:10145000000080BF80B2E60E5C902810AC9028108F
:10146000988D2810BC902810B49028100C9028104B
:101470008CB70828C48D2810EC8D2810AC0F0928D3
:10148000117209281C902810002201F0E5BFF0B469
:101490000246106895681318506803EB5004C007A3
:1014A00048BF4D44A3422DD013F8016B16F0030042
:1014B00004BF13F8010BC01C31090F2907D113F821
:1014C000011B0F3103E013F8017B05F8017B401E7F
:1014D000F9D10029E6D013F8010BC6F38106032EDB
:1014E00008BF13F8016B00EB062040422844002699
:1014F000B71E8F421EBF10F8017B05F8017B761CDA
:10150000F6D1CFE7F0BC02F10C00704762B38B0755
:1015100008D0521E11F8013B00F8013B00F0248076
:101520008B07F6D1830740F0208000BF103A07D325
:1015300030B4B1E83810103AA0E83810F9D230BC15
:10154000530724BFB1E80810A0E8081044BF51F8C1
:10155000043B40F8043BD20724BF31F8022B20F8AB
:10156000022B44BF0B7803707047121F17D35B0028
:1015700009D151F8043B20F8023B1B0C121F20F844
:10158000023BF6D20BE051F8043B00F8013B1B0A8A
:1015900020F8023B1B0C121F00F8013BF3D238BFAE
:1015A000121D521E24BF11F8013B00F8013BF8D870
:1015B00070470268531C036011707047B5EEC00B92
:1015C000F1EE10FA02D4B1EEC00B70476FF0004C90
:1015D00020EE10CBAFF300807047000011F0004305
:1015E00003D54942404261F10001B1B1B1FA81F243
:1015F00041409040C2F1200261FA02F181EA00000C
:1016000018BF40F0010002F19D01020643EAC151FA
:1016100072F1004241EB1020704758B1B0FA80F2ED
:101620009040C2F19D02010643EAC25271F10041AD
:1016300042EB10207047000080B50549086001F0BA
:1016400025FF01F055FD002001F0F6FF01BD00006F
:10165000EC71092882B00020019000200090002049
:10166000019009E00098401C00900098B0F5005FE0
:10167000F8D30198401C01900198B0F5805F02D228
:1016800000200090F1E702B0704780B50100002013
:1016900000F0C5FE01BD2DE9F043ADF5137D070057
:1016A000884616001C000020ADF802000020ADF8AE
:1016B0000000002002900020ADF804000020ADF8EA
:1016C0000600404601F0FCFF0290DFF878532888BE
:1016D000002801D028698047DFF86C0300780028D3
:1016E00000F033812888002800F01181BDF9060040
:1016F000411CADF806103A00010089B20020EB68E9
:1017000098474746404601F0DBFF02906888A97978
:1017100090FBF1F0ADF804003800471C0078002879
:10172000FAD10020ADF800000EE07F1E38782F2897
:1017300002D038785C2804D1BDF80000401CADF818
:1017400000000298401E0290BDF80000022802DA54
:1017500002980028E9D50298002806D47A1CDFF800
:10176000EC1253A801F058FE0EE0BDF8000000286E
:1017700005D13A00B64953A801F04EFE04E03A0004
:10178000B24953A801F048FE0020ADF8020042E043
:10179000BDF80010BDF80020BDF8023053AF9BB279
:1017A000BDF90400434313FA82F0385C43AA89B2BE
:1017B0005054BDF80000401CADF80000BDF800001A
:1017C00080B2BDF9041088420EDA53A801F078FF08
:1017D000BDF80020BDF802309BB2BDF904104B43A8
:1017E00013FA82F18842D3D2002043A9BDF8002029
:1017F0008854BDF90600411CADF8061043AAE979EA
:1018000011FB00F189B20020EB689847BDF8020097
:10181000401CADF80200BDF8027053A801F050FF63
:10182000BDF90410B0FBF1F0401CBFB2874203D2F7
:101830000020ADF80000C1E73200864953A801F04E
:10184000EBFDBDF90600411CADF8061053AAE9797D
:1018500011FB00F189B20020EB689847002C74D08E
:101860000020ADF8020041E0BDF80010BDF80020F6
:10187000BDF802309BB2BDF90400434313FA82F075
:10188000205C43AA89B25054BDF80000401CADF85A
:101890000000BDF8000080B2BDF9041088420EDAE5
:1018A000200001F00DFFBDF80020BDF802309BB212
:1018B000BDF904104B4313FA82F18842D4D20020C0
:1018C00043A9BDF800208854BDF90600411CADF8BD
:1018D000061043AAE97911FB00F189B20020EB68F8
:1018E0009847BDF80200401CADF80200BDF8026048
:1018F000200001F0E5FEBDF90410B0FBF1F0401C42
:10190000B6B2864221D20020ADF80000C1E74FF404
:10191000807100220DF10C09484601F049FD3800A4
:10192000A9688847002C07D00094330042464A49F2
:1019300003A801F071FD05E033004246474903A8C2
:1019400001F06AFD03A8A96888470DF5137DBDE87D
:10195000F08380B50A000100002000F051FD002056
:1019600002BD02B5010000236A463D4801F0F9FFBF
:10197000009802BD10B534480078002809D0394CD1
:101980002100002000F059FD01222100344801F01F
:1019900018FF10BD10B514002200D2B2002000F0D4
:1019A0002FFD200010BD38B50C001500C0B2002876
:1019B00003D12D480078002800D131BD2B4908788B
:1019C000002800D0FEE70878401C087001F050FEA7
:1019D00000232A0021002648FFF75DFEFFF73AFEAC
:1019E000F6E7002101804FF6FF7141808180FF21E1
:1019F0008171C171002181600021C16000210161FC
:101A00007047104902880A8042884A8082888A800A
:101A100082798A71C279CA7182688A60C268CA6032
:101A200000690861012008490870704700B585B059
:101A30006846FFF7D6FF0F4802906846FFF7E1FFC0
:101A400005B000BD7071092812720928689028102D
:101A50002C90281074902810448F2810C88F2810BC
:101A6000E0700928137209284A0708281472092807
:101A70003C9028108B162810022801D3012010E07A
:101A80000B00DBB2042B01DB01200AE0DFF8B433EA
:101A900003EB8000C9B2405C824201D3012000E028
:101AA00000207047F8B506000F0015001C00022E3C
:101AB00001D301201DE02A003900C9B23000FFF730
:101AC000DBFF012801D1012013E03800C0B200285B
:101AD00012D1B4F5807F0DD2DFF86C037603304469
:101AE00000EB850010F58050016864F30F21016060
:101AF0000020F2BD0120FCE7FFB2012F10D1B4F5A8
:101B0000803F0BD2D0487603304400EB850010F5BF
:101B1000A050016864F317210160E9E70120E8E7BC
:101B20000120E6E700B20012C0B27047F8B5050028
:101B30000E001700280000B2FFF7F4FF0400200099
:101B4000C0B2022801D3012023E03A003100C9B21B
:101B50002000C0B2FFF790FF012801D1012018E05A
:101B6000B9492000C0B2400308442A00D2B200EBB9
:101B70008200D0F8000CF6B266F3092067F3070084
:101B8000E4B264032144EDB201EB8501C1F8000C1D
:101B90000020F2BD70B504000D001600022C01D328
:101BA00001201CE032002900C9B22000FFF764FFC9
:101BB000012801D1012012E0A3496003085850F028
:101BC000004050F0407050F47F00EDB265F3092002
:101BD00066F307006203885064030859002070BD53
:101BE00010B59A4802F05FF945F6200213009849B3
:101BF0000C00012B0EDB14F01F00C318BFF34F8F36
:101C0000944804602034203B012BF9DABFF34F8F56
:101C1000BFF36F8F904C2000FFF778FC01208F49B5
:101C2000087010BD10B596B040F261140022012179
:101C30002000FFF77BFF2000FFF774FF092300223D
:101C40000121C0B2FFF72EFF2000FFF76BFF00223B
:101C50000121C0B2FFF79EFF4FF4CD70ADF8000038
:101C60000320ADF8020001208DF8040000227C4919
:101C7000684601F009FD5021002202AC200001F06D
:101C800097FB0020029000208DF80C0001208DF8B9
:101C90000D0000208DF80E0000208DF810000320AC
:101CA0008DF84C000120149000208DF85400002085
:101CB0008DF85500654C02A9200002F025F820009F
:101CC00002F0E2F8200002F0E8F8664802F0F3F8CB
:101CD00016B010BD10B58EB001248A200090892363
:101CE0004FF4C87200210AA802F0ACFB0AA802F067
:101CF00059FC002817D168465B492822FFF716FCDB
:101D00005A480178491CBC2211FB02F1ADF81210AF
:101D10000078401C782110FB01F0ADF816006846F1
:101D200002F070FC04002000C0B20EB010BD2DE91E
:101D3000F8430020BFF34F8FBFF36F8F4C4C2068E8
:101D400030F4003020604B4E00203060BFF34F8FE6
:101D5000BFF36F8F484F00203860BFF34F8F20686C
:101D600030F480302060BFF34F8FDFF81081D8F857
:101D70000010C1F34E32C1F3C90343F6E07515EA12
:101D8000421050EA8370DFF8F8C0CCF80000180069
:101D9000431E0028F1D11000421E0028EBD1BFF3F2
:101DA0004F8FBFF36F8F782036490880BC203649AB
:101DB0000880FFF78FFF81464846C0B2002801D156
:101DC000FFF730FF2068800311D4BFF34F8FBFF3BC
:101DD0006F8F00203060BFF34F8FBFF36F8F20688D
:101DE00050F400302060BFF34F8FBFF36F8F206837
:101DF000C00321D400203860BFF34F8FD8F8001003
:101E0000C1F34E32C1F3C90315EA421050EA8370A0
:101E10001E4E30601800431E0028F5D11000421EEF
:101E20000028EFD1BFF34F8F206850F4803020603E
:101E3000BFF34F8FBFF36F8F4846C0B2BDE8F28348
:101E400000000000A490281000000440801D5840AD
:101E5000246002285CEF00E0AC0F09281A72092800
:101E6000E11B2810001E5840148E28101B720928F0
:101E700014ED00E050EF00E084ED00E080ED00E0C4
:101E800074EF00E0F06B0028F26B002860EF00E0D8
:101E9000022801D3012010E00B00DBB2042B01DB90
:101EA00001200AE0DFF8CC3803EB8000C9B2405CC7
:101EB000824201D3012000E000207047F8B5040001
:101EC0000F0015001E00022C01D301202AE02A0079
:101ED0003900C9B22000FFF7DBFF012801D1012042
:101EE00020E006983900C9B202291ED1B6F5803F1C
:101EF00019D2202817D24FF4C052DFF87C186303A0
:101F00000B4403EB850313441F6866F317271F6018
:101F10006403214401EB850111440A6860F3C702A0
:101F20000A600020F2BD0120FCE7FFB2032F1FD1A1
:101F3000B6F1807F1AD2202818D24FF4E052DFF891
:101F4000381863030B4403EB850313441F6807F041
:101F5000FF0757EA06271F606403214401EB850150
:101F600011440A6860F3C7020A60DAE70120D9E782
:101F70000120D7E700B20012C0B27047F8B50500E3
:101F80000E001700280000B2FFF7F4FF0400200045
:101F9000C0B2022801D3012024E03A003100C9B2C6
:101FA0002000C0B2FFF774FF012801D1012019E021
:101FB000DFF8C4172000C0B2400308442A00D2B2A0
:101FC00000EB8200D0F8000CF6B266F3092067F34C
:101FD0000700E4B264032144EDB201EB8501C1F8CE
:101FE000000C0020F2BD70B504000D001600022C9C
:101FF00001D301201DE032002900C9B22000FFF703
:1020000047FF012801D1012013E0DFF86C176003BE
:10201000085850F0004050F0407050F47F00EDB28E
:1020200065F3092066F307006203885064030859CA
:10203000002070BDD0F840037047D0F80803C005F9
:10204000C00D704710F541710A6852F480320A6081
:1020500010F541710A6832F480320A60D0F8040346
:102060007047C0F840127047D0F80802C005C00D94
:102070007047D0F80802C0F3C030704738B505008B
:102080002800FFF7F1FF04002800FFF7F2FF041912
:10209000002C01D1012000E00020C0B232BDC0F808
:1020A000C81F7047D0F8C80F7047C0F8C01FD0F8DD
:1020B000C00F7047C0F8881F7047D0F8880F70476E
:1020C000C0F8801FD0F8800F7047016851F00041C0
:1020D000016070472DE9F84F040001250020002021
:1020E000DFF858082100C9B250F82160D6F804037F
:1020F000000601D1042700E001273000FFF7D2FFDE
:102100003900C9B2084253D03800C0B2012835D1D5
:102110003000FFF792FF80465FF0000901E019F1FF
:1021200001094046C0B2814522DADFF814A8200038
:10213000C0B21AF80000411C2200D2B20AF8021004
:10214000DFF800182200D2B2120101EB020BC0B27C
:1021500000903000FFF76EFF00990BF8010020009F
:10216000C0B21AF800001028D9DB3000FFF76AFF70
:102170000120DFF8D417E4B2085513E03000FFF770
:1021800059FFDFF8C0172200D2B212018854012093
:10219000DFF8AC172200D2B288540120DFF8A8176C
:1021A000E4B20855FFB239003000FFF77EFF0AE0C5
:1021B0003000FFF782FF800505D54FF40071300035
:1021C000FFF77EFF00252800C0B2BDE8F28F38B5CA
:1021D00004001500C9B200290ED0102919D02029F9
:1021E00024D030292FD031293AD0402945D0502948
:1021F00050D060295BD067E0DFF85007A060012075
:102200002073112060734FF48C70E08112202082C3
:1022100060E0DFF83C07A0600120207311206073AC
:1022200040F21D10E0816B20208253E0DFF824078C
:10223000A06001202073112060734FF48E70E08144
:102240006A20208246E0DFF81007A0600220207399
:102250001120607340F21B10E0816920208239E078
:10226000DFF8F806A060012020731120607340F2AF
:102270001B10E081692020822CE0DFF8E406A060DA
:1022800001202073132060734FF48D70E08168206B
:1022900020821FE0DFF8CC06A0600120207311200F
:1022A000607340F21F10E0816D20208212E0DFF8A1
:1022B000B806A06001202073112060734FF48F7066
:1022C000E0816C20208205E0DE22DFF8A0160020ED
:1022D000FFF769FBEDB2002D0ED0102D19D0202D87
:1022E00024D0302D2FD0312D3AD0402D45D0502D37
:1022F00050D0602D5BD067E0DFF8500620600020F2
:102300002071112060714FF48C70E08112202082C6
:1023100061E0DFF83C062060002020711120607130
:1023200040F21D10E0816B20208254E0DFF824068B
:10233000206000202071112060714FF48E70E081C8
:102340006A20208247E0DFF810062060012020711B
:102350001120607140F21B10E081692020823AE078
:10236000DFF8F8052060002020711120607140F234
:102370001B10E081692020822DE0DFF8E405206059
:1023800000202071132060714FF48D70E08168206F
:10239000208220E0DFF8CC05206000202071112091
:1023A000607140F21F10E0816D20208213E0DFF8A1
:1023B000B805206000202071112060714FF48F70EB
:1023C000E0816C20208206E04FF49172DFF89C15CA
:1023D0000020FFF7E8FA31BD38B50400DFF85C559E
:1023E000C9B22000C0B255F82000FFF73AFE200025
:1023F000C0B255F82000FFF741FE0028F7D031BDEC
:1024000070B505000E00140006E031782800C0B257
:10241000FFF7E2FF641E761C002CF6D170BD38B5C4
:1024200004000D0005E029782000C0B2FFF7D4FFBA
:102430006D1C28780028F6D131BD30B40022DFF8B9
:1024400008350200D2B29A5C002A2CD0DFF8F424BE
:102450000400E4B22401145D0C70DFF8E4440100D0
:10246000C9B2615C491E0500EDB261550100C9B2F7
:10247000615C002912D000210300DBB2E35C9942C9
:102480000FDA0300DBB21B0113440500EDB22D018E
:1024900015440D446D785D54491CEDE70021C0B230
:1024A0001954012000E00020C0B230BC704770B564
:1024B00005000C00DFF884642800C0B256F8200044
:1024C000FFF7FBFD4008400001002800C0B256F8AD
:1024D0002000FFF7EFFD2800C0B256F82000FFF7FC
:1024E000ECFD30F0020001002800C0B256F82000D8
:1024F000FFF7E0FD2800C0B256F82000FFF7DDFD31
:1025000030F0200001002800C0B256F82000FFF78C
:10251000D1FD2800C0B256F82000FFF7CEFD30F004
:10252000400001002800C0B256F82000FFF7C2FDAD
:102530002800C0B256F82000FFF7BFFD30F01000B1
:1025400001002800C0B256F82000FFF7B3FD2800B4
:10255000C0B256F82000FFF7B0FD30F480700100E3
:102560002800C0B256F82000FFF7A4FD2800C0B232
:1025700056F82000FFF7A1FD30F48060010028002C
:10258000C0B256F82000FFF795FD002C0ED02800B1
:10259000C0B256F82000FFF785FD50F4007001002E
:1025A000EDB256F82500FFF785FD0DE02800C0B21A
:1025B00056F82000FFF776FD30F400700100EDB210
:1025C00056F82500FFF776FD70BD70B505000C00CC
:1025D000DFF868632800C0B256F82000FFF762FDFC
:1025E00030F0080001002800C0B256F82000FFF7C4
:1025F00056FD2800C0B256F82000FFF753FD30F01A
:10260000200001002800C0B256F82000FFF747FD67
:102610002800C0B256F82000FFF744FD30F4807067
:1026200001002800C0B256F82000FFF738FD28004E
:10263000C0B256F82000FFF735FD30F400700100FD
:102640002800C0B256F82000FFF729FD2800C0B2CC
:1026500056F82000FFF726FD30F400600100280046
:10266000C0B256F82000FFF71AFD2800C0B256F895
:102670002000D0F8040300061FD1002C5BD12800F5
:10268000C0B256F82000FFF70DFD400840000100E1
:102690002800C0B256F82000FFF701FD2800C0B2A4
:1026A00056F82000FFF7FEFC30F004000100EDB208
:1026B00056F82500FFF7F3FC70BD002C1DD0280054
:1026C000C0B256F82000FFF7EDFC30F00400010026
:1026D0002800C0B256F82000FFF7E1FC2800C0B285
:1026E00056F82000FFF7DEFC50F001000100EDB2CB
:1026F00056F82500FFF7D3FCDEE72800C0B256F8F5
:102700002000FFF7CFFC30F0040001002800C0B229
:1027100056F82000FFF7C3FC2800C0B256F820008E
:10272000FFF7C0FC400840000100EDB256F825005C
:10273000FFF7B5FCC0E72800C0B256F82000FFF74D
:10274000B1FC4008400001002800C0B256F820004B
:10275000FFF7A5FC2800C0B256F82000FFF7A2FC46
:1027600050F004000100EDB256F82500FFF797FC89
:10277000A2E70000A4902810000004402DE9F041D9
:102780002DED028BA8B005000E00170028003900BF
:10279000C9B20909C0B2884201D1012000E000207D
:1027A0001C00DFF8C88140F285224146C0B2FFF725
:1027B000FAF828002100C9B20909C0B2884201D143
:1027C000012000E0002040F286224146C0B2FFF71F
:1027D000EAF802A81421FEF757FE342100220DF179
:1027E0006808404600F0E4FD4C2100220DF11C0871
:1027F000404600F0DDFD082080B206FB00F65C4894
:10280000B0FBF6F85A4806FB180000EE100AB8EEC6
:10281000400B01EE106AB8EE411B80EE010BBFEEDB
:10282000ED0B10EE100B08EE100A2200D2B23900A8
:10283000C9B202A8FFF7CBFC08201B909DF80D0041
:102840008DF870001AAA9DF80C10029802F0EFFAA9
:1028500006201B909DF815008DF870001AAA9DF8AF
:102860001410049802F0E3FA002007900820089062
:102870000820099002200B9000200C90002012905C
:10288000002014902D4C2800C0B254F8200002F013
:102890004FFC38492A00D2B2382042430A4407A9E3
:1028A0002800C0B254F8200002F000FB2800C0B29B
:1028B00054F82000FFF709FC2A00D2B20321BDF929
:1028C0001600FFF75BFBBDF91600FFF753FB8DED1C
:1028D000008AB8F1010843462A00D2B20321C0B2EF
:1028E000FFF7ECFABDF91600FFF744FB2A00D2B25D
:1028F0000321C0B2FFF777FBBDF91800ADF8000067
:102900000320ADF8020001208DF8040007221A48C8
:102910002900C9B250F82110684600F0B5FE002128
:102920002800C0B2FFF751FE00212800C0B2FFF717
:10293000BEFD28B0BDEC028BBDE8F0812C07082855
:10294000C4710928D86F0928CC71092800003140CA
:10295000000231400005314080083140800631409E
:10296000000731400001314080013140788C28104F
:1029700000B4C404CC6B09281007082838B504003B
:10298000002564204443142002F059FC002805D19E
:102990000A2000F053FB6D1CA542F4D3A54201D3DD
:1029A000012000E00020C0B232BD38B514001D0087
:1029B0000822DFF8C8341A60002805D089B20A005E
:1029C0000100002002F034FF002C05D0ADB22A0037
:1029D0002100002002F02CFF0820DFF8A41408607A
:1029E00031BD38B504000D000820DFF890140860F0
:1029F000042322002100002002F082FF280080B280
:102A0000002806D0ADB22B00221D211D002002F0AF
:102A100077FF0820DFF86814086031BDF8B50400BE
:102A20000D0016000820DFF85414086002202870FA
:102A30006E8004232A002900002002F061FF30008C
:102A400080B221280EDB20232A1D2100002002F065
:102A500057FFB6B2203E320014F12001002002F0F0
:102A6000E7FE0CE0B6B22F1D320021003800FEF761
:102A70004DFD20232A1D291D002002F041FF0820C2
:102A8000DFF8FC130860F1BDF8B50D0016001F005B
:102A900001248DF80000ADF802603800FFF76EFFEA
:102AA00000281ED133009BB22A0004216846FFF79C
:102AB0007CFF3800FFF762FF002812D102208DF85A
:102AC00000000020ADF80200BDF802106846FFF7D4
:102AD00088FF142000F0B2FA9DF80000802800D191
:102AE00000242000C0B2F2BDF8B504000D001600AD
:102AF00001273000FFF742FF002814D12C7000237B
:102B0000002220212800FFF750FF3000FFF736FF9A
:102B1000002808D102202870002068802021280089
:102B2000FFF75FFF00273800C0B2F2BD30B589B0B3
:102B30004FF47A7269462020FFF7D6FF0400200088
:102B4000C0B200280BD19DF80000A02807D1BDF825
:102B5000022001A9DFF82C532800FEF7D7FCE4B2CD
:102B6000002C07D19DF80000A02801D0012002E030
:102B7000002000E00120C0B209B030BD30B589B0FE
:102B80004FF47A7269462120FFF7AEFF040020005F
:102B9000C0B200280BD19DF80000A12807D1BDF8D4
:102BA000022001A9DFF8E0522800FEF7AFFCE4B2F2
:102BB000002C07D19DF80000A12801D0012002E0DF
:102BC000002000E00120C0B209B030BD30B589B0AE
:102BD0004FF47A7269462220FFF786FF0400200036
:102BE000C0B200280BD19DF80000A22807D1BDF883
:102BF000022001A9DFF894522800FEF787FCE4B216
:102C0000002C07D19DF80000A22801D0012002E08D
:102C1000002000E00120C0B209B030BD10B590B076
:102C200002000B00002B05D09949684600F0F4FB28
:102C3000020004E09749684600F0EEFB020042F211
:102C4000107392B269461020FFF71EFF0400FFF7D1
:102C5000BDFF2000C0B210B010BD18B58DB00193FB
:102C600000920B0002008C4902A800F0D5FB020084
:102C70004CF2503392B202A91120FFF705FF040075
:102C8000FFF7A4FF2000C0B20EB010BDF0B589B0B0
:102C900006000C00814D2878002858D101202870AA
:102CA0001CE03A0092B269463000FFF7B7FE9DF88B
:102CB0000000902803D09DF80000912809D1BDF8AC
:102CC0000200002805D0BDF8022001A9744800F0D8
:102CD00078FD380080B2241ABFB23E44002C2AD0BE
:102CE00040F6F970844202D340F6F87700E02700FE
:102CF0004FF47A70FFF742FE0028D2D01BE002208A
:102D00008DF800000020ADF8020020216846FFF792
:102D100068FE9DF80000902803D09DF800009128DF
:102D200009D1BDF80200002805D0BDF8022001A994
:102D30005B4800F046FD9DF80000902805D14FF457
:102D40007A70FFF71BFE0028D9D0002028702000E1
:102D500009B0F0BD38B58AB004000D00002C01D0D8
:102D6000012000E000204FF40E724E49C0B2FEF781
:102D70001AFE0095494D287800282AD10120287094
:102D80004FF47A70FFF7FAFD002820D102208DF869
:102D900004000020ADF80600202101A8FFF721FE65
:102DA0009DF80400902803D09DF80400912809D1D3
:102DB000BDF80600002805D0BDF8062002A9384855
:102DC00000F0FFFC9DF804009028D9D0FFE7002018
:102DD000287000236A462100314800F0C2FD0098A7
:102DE0000BB030BD3EB504000D0000204FF48063F1
:102DF0002D4A00212A4800F067FF08200290002099
:102E00000190002000900023284A0021002002F0B9
:102E1000E4FD032301220121132002F048FA0323D9
:102E200001220121B82002F042FA022300220021EF
:102E3000142002F03CFA0021B82002F0DEF90A204A
:102E400000F027F90121B82002F0D7F9642000F042
:102E500020F9002011490870FFF768FE0100C9B28F
:102E6000002909D1FFF78AFE29002000FFF7D6FECE
:102E70000100C9B20029FFD1C0B23EBD04013140FA
:102E800008013140A8710928847109289470092823
:102E900080902810C4902810F88F28101C720928E0
:102EA00028710928288A2810CC670928809698005C
:102EB0000EB4C0B5024603A800210190009101ABF9
:102EC0000121044878440C3002F0F1FE06BC5DF8A4
:102ED00010FB00BF0D610000022801D301200FE0AC
:102EE0000B00DBB2042B01DB012009E0AA4B03EB52
:102EF0008000C9B2405C824201D3012000E0002082
:102F00007047F8B506000F0015001C00022E01D313
:102F100001201CE02A003900C9B23000FFF7DCFFB5
:102F2000012801D1012012E03800C0B2002811D1DF
:102F3000B4F5807F0CD299487603304400EB8500CD
:102F400010F58050016864F30F2101600020F2BD8C
:102F50000120FCE7FFB2012F10D1B4F5803F0BD266
:102F60008E487603304400EB850010F5A0500168D0
:102F700064F317210160E9E70120E8E70120E6E7B3
:102F800000B20012C0B27047F8B505000E0017007D
:102F9000280000B2FFF7F4FF04002000C0B20228AE
:102FA00001D3012023E03A003100C9B22000C0B2B1
:102FB000FFF792FF012801D1012018E07749200096
:102FC000C0B2400308442A00D2B200EB8200D0F81D
:102FD000000CF6B266F3092067F30700E4B264035D
:102FE0002144EDB201EB8501C1F8000C0020F2BDD7
:102FF00070B504000D001600022C01D301201CE066
:1030000032002900C9B22000FFF766FF012801D174
:10301000012012E061496003085850F0004050F070
:10302000407050F47F00EDB265F3092066F30700AD
:103030006203885064030859002070BDF8B506008B
:10304000F600574C574D00212078C001284400F06D
:1030500020FF12E02078C001284400F01CFFB84295
:10306000F8D32078C001284400F015FF361A00215B
:103070002078C001284400F00CFF4CF25137BE42CA
:10308000E8D22078C001284400F005FF8642F8D23B
:10309000F1BDF8B504004FF4FA504443404D414EA1
:1030A00000212878C001304400F0F3FE14E02878B5
:1030B000C001304400F0EFFEB842F8D33A4F3C195B
:1030C0002878C001304400F0E6FE3F183900287827
:1030D000C001304400F0DDFE4CF25137BC42E6D274
:1030E0002878C001304400F0D6FE8442F8D2F1BD09
:1030F00038B594B0502100226C46200000F058F9F9
:103100002A4C00220121B4F90000FFF73DFFB4F979
:103110000000FFF735FF092300220121C0B2FFF7AD
:10312000F0FEB4F90000FFF72BFF00220121C0B22E
:10313000FFF75EFF5FF0FF30009000208DF8040085
:1031400000208DF8050000208DF8060000208DF885
:10315000080003208DF844000120129001208DF812
:1031600007000F4C0F4D69462078C001284400F03D
:10317000CBFD2078C001284400F086FE0021207895
:10318000C001284400F085FE2078C001284400F0EA
:1031900092FE15B030BD0000A4902810000004403D
:1031A0004B07082800005940B03CFFFF480708289B
:1031B000C0B200280AD001280FD0032814D0042858
:1031C00019D005281ED0062823D022E01148124924
:1031D00008601248124908601BE012480E49086056
:1031E00011480F49086014E010480B490860104866
:1031F0000B4908600DE00F48074908600E48084970
:10320000086006E00D48044908600D48044908605C
:10321000FFE7704753192810F00608286319281093
:10322000F4060828198628107D8628108185281024
:10323000E5852810F97F2810F18028108D2C2810A2
:10324000552D28102DE9F84306000C001F005FF0F3
:103250000008DFF84801AA21017002214170002C0A
:1032600001D0002100E00121089D730153EA011300
:103270001A4382700821C1708780C580DFF82091D1
:103280000821D9F800209047F6B2012E04D014D3BB
:10329000032E0DD007D310E0BFB2ADB26F430820AC
:1032A00097FBF0F809E0BFB2ADB26F43B84604E057
:1032B000BFB2ADB26F437F00B846002C04D0414688
:1032C0002000D9F800209047BDE8F183F8B504004C
:1032D0000020DFF8D00085888178890600D56D0050
:1032E000DFF8BC60082132689047002720E03800F2
:1032F000C0B204EB8000C068002808D0290089B261
:103300003800C0B204EB8000C068326890473800D3
:10331000C0B204EB8000C06A002808D0290089B23E
:103320003800C0B204EB8000C06A326890477F1C4E
:103330003800C0B20828DADBF1BD30B4194CAA2538
:103340002570032565700825E570184C20722160F2
:10335000A280E38030BC704738B5144C207A002836
:1033600001D0012000E000204FF4BC720E49C0B231
:10337000FEF719FB0B4DE0880090A388AA7812F0A5
:103380000F022168207AFFF75DFFA87810F00F0F79
:1033900002D02000FFF79AFF31BD0000B471092868
:1033A000F0060828BC7109284088281048700928B0
:1033B00062F30F2262F31F42401810F0030308D09B
:1033C000C91A1FD3DB0748BF00F8012D28BF20F81A
:1033D000022D130030B414461546103928BF20E9D9
:1033E0003C00FAD8490728BF20E90C0048BF40F844
:1033F000042D890028BF20F8022D48BF00F8012DB8
:1034000030BC7047C91818BF00F8012DCB0728BF82
:1034100000F8012D704700000CB430B583B00A46A7
:1034200006A90291044600250194009502AB01A96A
:10343000084878441E3002F03AFC019A15700028C2
:103440004EBF04460198041B204603B030BC5DF813
:103450000CFB00BF5FE1FFFF00B500BF1300964605
:103460009446103928BFA0E80C50FAD85FEA417C96
:1034700028BF0CC048BF40F8042BC90728BF20F85C
:10348000022B48BF00F8012B00BD000010B5002042
:1034900042490860BFF34F8F41480168C1F34E3283
:1034A000C1F3C90343F6E07010EA421050EA83709A
:1034B0003C4C20601800431E0028F3D11000421E2F
:1034C0000028EDD1BFF34F8FBFF36F8FBFF34F8F46
:1034D000BFF36F8F002034490860BFF34F8FBFF3F5
:1034E0006F8F00F001F810BD38B586B068462F49DF
:1034F0001822FEF71BF8684603F0D6FCC0B200287D
:103500000DD02B4C18222B49200003F099FF0020EE
:10351000E0754E2028490860002003F0C9FF274DC0
:10352000280003F063FFC0B200280DD0204C182201
:103530002049200003F084FF0020E07550201E4940
:103540000860002003F0B4FF1D49286808600A687D
:103550001C4882181C48B2FBF0F01C4A10601C4842
:10356000096801F2E7314FF47A72B1FBF2F10160C0
:103570000068C0031749086007B030BD80B503F08C
:10358000EBFF15490A6852F470020A60BFF34F8FCF
:10359000BFF36F8F03F0E4FF01BD000084ED00E096
:1035A00080ED00E074EF00E050EF00E0B08F2810F5
:1035B000C8700928B0862810D4710928D871092844
:1035C000DC7109283F420F0040420F00E4710928D6
:1035D000E0710928E871092888ED00E0010009B2CE
:1035E000002908D4012210F01F018A401B4900B2B3
:1035F000400941F820207047010009B2002908D491
:10360000012210F01F018A40154900B2400941F81B
:1036100020207047020012B2002A04D44901114A46
:1036200000B2115407E049010F4A00B210F00F0038
:10363000104400F8041C7047002800D162B60B4803
:103640000168491C0160704772B608490868002883
:1036500002D00868401E08600868704700E100E07A
:1036600080E200E000E400E018ED00E0F0710928DD
:1036700080B5FFF7E9FF03F077FF01BD80B5C9B260
:1036800000B2FFF7C7FF01BD70B504000D001600C2
:10369000200003F079FF2900B4F9000003F0B3FF24
:1036A0003100C9B2B4F90200FFF7E8FFB4F9020033
:1036B000FFF7A2FFB4F90200FFF790FF70BD000012
:1036C00000F10103810704D010F8011B820781B1CA
:1036D000FAD10268A2F10131914311F0803104BFA7
:1036E00050F8042FF6E709BAB1FA81F100EBD100E6
:1036F000401CC01A7047000082688918816003E08E
:1037000082684169521A8260816842699142F7D2A7
:103710007047C2688918C16003E0C2684169521AE3
:10372000C260C16842699142F7D2704770B5040027
:10373000002C01D0012000E000205422DFF8C41545
:10374000C0B2FEF730F90025207850F0010020705B
:103750000020A0600020E06060692061607800289F
:1037600003D0022810D007D315E0616900226668F3
:103770003000FFF71DFE0EE0616949000022666817
:103780003000FFF715FE06E06169890000226668D7
:103790003000FFF70DFE002020702800C0B270BD81
:1037A00010B50400002C01D0012000E000207022A0
:1037B000DFF85015C0B2FEF7F6F860692169401ACB
:1037C00010BD2DE9F84305001600002D01D00120A1
:1037D00000E000200C00AA22DFF82815C0B2FEF796
:1037E000E2F800270020002C01D10327B5E028785B
:1037F00010F0050F01D00427AFE0287850F0040046
:1038000028702869B042C0F0A380D5F81480A86859
:10381000B8EB0008B04567D26878002803D00228CA
:1038200041D01FD390E0424621006868AB6800EBAE
:1038300003094846FDF76AFE41462800FFF75CFF92
:10384000B6EB080204EB08016868AB6800EB030400
:103850002000FDF75BFEB6EB080841462800FFF7A5
:103860004BFF71E05FEA480221006868AB6800EB3B
:1038700043094846FDF74AFE41462800FFF73CFF52
:10388000B6EB0802520004EB48016868AB6800EB35
:1038900043042000FDF73AFEB6EB08084146280035
:1038A000FFF72AFF50E05FEA880221006868AB68F2
:1038B00000EB83094846FDF729FE41462800FFF743
:1038C0001BFFB6EB0802920004EB88016868AB6846
:1038D00000EB83042000FDF719FEB6EB0808414613
:1038E0002800FFF709FF2FE06878002803D002289E
:1038F0001DD00ED328E0320021006868AB6800EBD1
:1039000003042000FDF702FE31002800FFF7F4FE5B
:103910001AE0720021006868AB6800EB43042000E5
:10392000FDF7F4FD31002800FFF7E6FE0CE0B200E1
:1039300021006868AB6800EB83042000FDF7E6FD1A
:1039400031002800FFF7D8FE2869861B2E6100E0B1
:103950000527287810F0FB0028703800C0B2BDE8B9
:10396000F2832DE9F04705000E001F00002D01D065
:10397000012000E000201400DFF8888340F25B1291
:103980004146C0B2FEF70FF8002C01D0012000E044
:1039900000204FF4AE724146C0B2FEF704F85FF06B
:1039A000000800200020002E02D15FF003088BE009
:1039B000297811F0030F03D020605FF006089CE027
:1039C0002800FFF7EDFE2168884209D220605FF0F1
:1039D0000708002804D1287810F0F70028708CE040
:1039E000287850F008002870D5F81490E868B9EBF2
:1039F00000092068814522D36878002803D0022876
:103A000013D008D35CE022686868E968014430009C
:103A1000FDF77CFD54E0226852006868E96800EB1D
:103A200041013000FDF772FD4AE0226892006868AB
:103A3000E96800EB81013000FDF768FD40E068783F
:103A4000002803D0022827D011D339E04A466868FD
:103A5000E9680144B2465046FDF758FD2268B2EBD2
:103A6000090269684E443000FDF750FD28E05FEA26
:103A700049026868E96800EB4101B2465046FDF72B
:103A800045FD2268B2EB09025200696806EB49065F
:103A90003000FDF73BFD13E05FEA89026868E968E2
:103AA00000EB8101B2465046FDF730FD2268B2EBD3
:103AB00009029200696806EB89063000FDF726FDD1
:103AC000287810F0F7002870FFB2002F15D1287861
:103AD0000B2802D15FF002080FE0287850F00200B6
:103AE000287021682800FFF714FE29692068411812
:103AF0002961287810F0FD0028704046C0B2BDE86A
:103B0000F0872DE9F04705000E001F00002D01D0C1
:103B1000012000E000201400DFF8E8814FF4DF729C
:103B20004146C0B2FDF73FFF002C01D0012000E06C
:103B3000002040F2BF124146C0B2FDF734FF5FF0F3
:103B4000000800200020002E02D15FF00308ABE047
:103B5000297811F0070F03D020605FF00608AFE06E
:103B60002800FFF71DFE2168884209D220605FF01F
:103B70000708002804D1287810F0F70028709FE08B
:103B8000287850F008002870E868A968884203D3B4
:103B9000A8682168884228D36878002803D00228C2
:103BA00017D00AD37CE022686968AB6820681B1ACA
:103BB00019443000FDF7AAFC72E0226852006968DF
:103BC000AB6820681B1A01EB43013000FDF79EFC37
:103BD00066E0226892006968AB6820681B1A01EBF6
:103BE00083013000FDF792FC5AE0D4F80090A868F9
:103BF000B9EB00096878002803D0022835D018D323
:103C00004EE04A4668686969B1EB09010144B24671
:103C10005046FDF77BFC2268B2EB09026968AB688D
:103C200020681B1A194406EB09042000FDF76EFCFE
:103C300036E05FEA490268686969B1EB090100EBA7
:103C40004101B2465046FDF761FC2268B2EB090221
:103C500052006968AB6820681B1A01EB430106EB50
:103C600049042000FDF752FC1AE05FEA8902686807
:103C70006969B1EB090100EB8101B2465046FDF7DD
:103C800045FC2268B2EB090292006968AB682068C3
:103C90001B1A01EB830106EB89042000FDF736FCBB
:103CA000287810F0F7002870FFB2002F08D128788C
:103CB0000B2802D15FF0020802E02800FFF736FD72
:103CC0004046C0B2BDE8F087F8B504000E0017000A
:103CD0001D00002C01D0012000E000204FF40772ED
:103CE0000849C0B2FDF75FFE002067600021217027
:103CF00066700021A1600021E16025616561C0B2AC
:103D0000F2BD0000908B281010B4012291F84C30C5
:103D1000052B03D291F84D30052B01D31000A7E0FD
:103D2000002800F0A480002900F0A180514A126808
:103D30004B7963F392428B7913F0030363F31142DF
:103D40000B7A13F0070363F31A62CB7963F39E7265
:103D50000B7D63F3000291F8243063F341020260AB
:103D60000A7910F130031C6862F307041C604A7979
:103D7000012A0BD18A79002A02D10022826007E051
:103D80008A79012A04D10A68826001E001228260F6
:103D9000CA6802610A694261CA6982610A6AC261CB
:103DA0000A680262344A12680B7E03F0FF03120AAB
:103DB00012021A4391F8303003F0FF0363F3174205
:103DC00091F8403003F0FF0363F31F6291F848302D
:103DD00003F0FF0363F30F224264284A126891F84C
:103DE000383003F0FF03120A12021A4391F8283008
:103DF00003F0FF0363F30F228264214A12688B7D74
:103E000013F00303920892001A4391F8253013F03F
:103E1000030363F38B2291F82C3013F0030363F355
:103E2000051291F8343013F0030363F3092291F87B
:103E30003C3013F0030363F3871291F8443013F01E
:103E4000030363F38302C2640E4A126891F84C3094
:103E500013F00703D208D2001A4391F84D3013F043
:103E6000070363F306124265497D81670022100053
:103E700010BC70473C9128104091281044912810A4
:103E8000489128104C912810016851F000410160C0
:103E9000704781607047806870477830016851F0E2
:103EA00001010160704710F170010A6852F00102CF
:103EB0000A60006F70474030016851F010010160E6
:103EC000704700001CB50400002C01D0012000E068
:103ED00000204122DFF8A414C0B2FDF764FDDFF832
:103EE000A00401212278D21010EBC212237813F023
:103EF000070311FA03F313602279D21010EBC210FA
:103F0000227912F0070211FA02F20260E0680090D2
:103F10000098421E00920028FAD1DFF86824207928
:103F2000C01012EBC010237913F0070311FA03F34A
:103F30000360E06800900098431E00930028FAD1C7
:103F40002078C01012EBC012207810F007008140DA
:103F50001160E06800900098411E00910028FAD19D
:103F600013BD1CB50400002C01D0012000E000208E
:103F70005522DFF80814C0B2FDF715FDDFF8040480
:103F800001212279D21010EBC212237913F007031A
:103F900011FA03F313602278D21010EBC2102278CA
:103FA00012F0070211FA02F20260E0680090009835
:103FB000421E00920028FAD1DFF8C4232078C010F6
:103FC00012EBC010237813F0070311FA03F3036018
:103FD000E06800900098431E00930028FAD12079F1
:103FE000C01012EBC012207910F007008140116060
:103FF000E06800900098411E00910028FAD113BD9E
:1040000038B504000D00002C01D0012000E0002094
:104010006A22DFF86813C0B2FDF7C5FCDFF864134D
:1040200001222078C01011EBC010237813F0070391
:1040300012FA03F30360EDB2002D0CD02079C0100A
:10404000DFF83C3313EBC013207910F0070012FAAD
:1040500000F0186009E02079C01011EBC01023793E
:1040600013F0070312FA03F30360E068009000986E
:10407000431E00930028FAD1DFF804332078C010E3
:1040800013EBC010257815F0070512FA05F5056049
:10409000E06800900098451E00950028FAD120782D
:1040A000C01011EBC011207810F0070012FA00F0D8
:1040B00008602079C01013EBC013207910F00700BE
:1040C00082401A6031BD2DE9FC410400002C01D072
:1040D000012000E000208622DFF8A012C0B2FDF728
:1040E00062FC0025DFF8EC6201272078C01016EB97
:1040F000C010217811F0070117FA01F10160DFF813
:1041000080822079C01018EBC010217911F00701CE
:1041100017FA01F10160002200216068C0B201F0CD
:104120009FF8E06800900098411E00910028FAD1A5
:104130002078C01018EBC018207810F0070017FA8C
:1041400000F0C8F80000E06800900098411E00915F
:104150000028FAD16068C0B201F071F8002800D0E0
:1041600001252078C01016EBC016207810F007004B
:1041700087403760032201216068C0B201F070F807
:10418000E06800900098411E00910028FAD12800B4
:10419000C0B2BDE8F6817CB504000D00002C01D052
:1041A000012000E00020A822DFF8D011C0B2FDF706
:1041B000FAFB80210800C0B200284ED02800C0B20F
:1041C00008420CD00120227912F007029040227997
:1041D000D210DFF8AC3113EBC21318600BE00120F2
:1041E000227912F0070290402279D210DFF8E431F0
:1041F00013EBC2131860C9B24908E0684008009088
:104200000098421E00920028FAD10122207810F076
:10421000070012FA00F02378DB10DFF8646116EB78
:10422000C3163060E06800900098431E0093002899
:10423000FAD1207810F0070082402078C010DFF813
:10424000943113EBC0131A60E068400800900098A6
:10425000421E00920028FAD1ACE72000FFF733FF9E
:10426000012801D1002000E00120C0B276BD2DE977
:10427000FC4704000D00002C01D0012000E00020CC
:10428000C222DFF8F810C0B2FDF78DFB0026082728
:10429000DFF8F0805FF001092078C01018EBC01043
:1042A000217811F0070119FA01F10160E06800902E
:1042B0000098411E00910028FAD1DFF8C4A02079AF
:1042C000C0101AEBC010217911F0070119FA01F1A1
:1042D0000160002200216068C0B200F0C1FF27E049
:1042E0002078C01018EBC010217811F0070119FADE
:1042F00001F10160E06800900098411E00910028E3
:10430000FAD12078C0101AEBC010217811F0070103
:1043100019FA01F10160E06800900098411E0091D7
:104320000028FAD16068C0B200F089FF50EA460662
:104330003800471EC0B20028D2D12078C01018EB38
:10434000C018207810F0070019FA00F9C8F800909A
:10435000032201216068C0B200F082FFE068009093
:104360000098411E00910028FAD12900C9B220000E
:10437000FFF746FE3000C0B2BDE8F687188B281064
:10438000080031400400314070B504000D001600F3
:10439000002C01D0012000E0002040F28D2247498E
:1043A000C0B2FDF700FB2000FFF78CFD217A490029
:1043B000C9B22000FFF7EFFE2900C9B22000FFF7C5
:1043C000EAFE3100C9B22000FFF7E5FE2000FFF74A
:1043D000C8FD70BD0400314038B504000D00002C4C
:1043E00001D0012000E0002040F29F223349C0B2FA
:1043F000FDF7D9FA00202000FFF764FD217A49007B
:10440000C9B22000FFF7C7FE2900C9B22000FFF79C
:10441000C2FE2000FFF7A5FD2000FFF753FD217A23
:10442000490051F00101C9B22000FFF7B4FE01219B
:104430002000FFF71CFF05002000FFF792FD280079
:10444000C0B232BD2DE9F843040088461700002CA5
:1044500001D0012000E00020089D1E00DFF85C90E4
:1044600040F2BA224946C0B2FDF79DFA3000290059
:10447000C0B2C9B2884201D0012000E0002040F261
:10448000BB224946C0B2FDF78EFA3000C0B22060B0
:104490002800C0B2606084F80880E760032301222E
:1044A00001213000C0B200F002FF032301220121EC
:1044B0002800C0B200F0FBFEBDE8F183188B281085
:1044C00070B504000D00DFF834682A0092B2120AB9
:1044D000D2B22100C9B23000FFF756FF2A00D2B293
:1044E000F0213000FFF750FF70BD2DE9F0470400C8
:1044F0000D00012600275FF000085FF00A0948461A
:1045000040B2002836D0484640B2052190FBF1F277
:1045100001FB1200002810D1DFF8E0A72A0092B2B8
:10452000120AD2B22100C9B25046FFF72DFF2A006D
:10453000D2B2F0215046FFF727FFDFF8C0A72100D5
:10454000C9B25046FFF748FF0700F0215046FFF779
:1045500043FF8046280080B23900C9B24246D2B239
:1045600052EA0122904202D10020060002E0B9F195
:104570000109C4E7300040B2BDE8F08770B504001F
:10458000DFF878672100C9B23000FFF725FF05008A
:10459000F0213000FFF720FFEDB2C0B250EA052055
:1045A00080B270BDF8B50400002500260127DFF8B1
:1045B0004C075C210172E168C1602168016061689B
:1045C00041600020FFF7DAFF0600300041F224319D
:1045D00080B288420BD0300041F2113180B2884263
:1045E00005D0300041F2133180B2884202D1002060
:1045F000070004E06D1C2800C0B21528E1DB38007C
:10460000C0B2F2BD2DE9F14F8AB05FF0000A00247C
:104610000020ADF8200000250020ADF806000020A5
:10462000ADF81E000020ADF81C0000265FF0000869
:1046300000270A98C088ADF808000A984089ADF8AC
:104640000A000A98C089ADF80C000A98408AADF8B3
:104650000E000A98C08AADF810000A98408BADF899
:1046600012000A98C08BADF814000A98408CADF87F
:1046700016000A98C08CADF81A004BF6EF61FE20C8
:10468000FFF71EFF03210C20FFF71AFF0020FFF7A2
:1046900075FF070041F224393800494680B288424C
:1046A0000BD0380041F2113180B2884205D0380079
:1046B00041F2133180B2884200D109E018F10108BB
:1046C0004046C0B2142802DB0120060000E0DDE70E
:1046D0003000C0B2002840F00C83BDF810007928EB
:1046E00007DABDF810008000ADF806005AF0020AA3
:1046F00015E0BDF81000F12807DABDF81000400001
:10470000ADF806005AF0010A09E0BDF8100040F2C9
:10471000E111884203DABDF81000ADF80600BDF8DB
:104720000E00BD2806DABDF80E00800005005AF024
:10473000080A15E0BDF80E0040F27911884206DA49
:10474000BDF80E00400005005AF0040A08E0BDF86C
:104750000E0040F2F121884202DABDF80E00050099
:10476000DFF89CB540F24E31280080B2091ACBF830
:1047700000103800494680B288427AD148F2883128
:104780000720FFF7B2FE80190600DFF87815BDF8A4
:104790001020921C2B009BB2DBF80000C3185A4378
:1047A000121D91FBF2F00400200080B240F2F511DE
:1047B000884202DB4FF4FA7004002000BDF80C10B0
:1047C00080B2884201D2ADF80C40DFF83C15DFF82A
:1047D0003405BDF80C2090FBF2F2121F2B009BB2A7
:1047E000DBF80000C31892FBF3F2BDF81000121AB8
:1047F0000A6047F621600A68824202DA0A68022AE1
:104800000EDA0A68022A02DA0220086008E00A6862
:10481000824203DB47F62060086001E00868086018
:10482000DFF8E004BDF80C2090FBF2F2121F0968DB
:10483000BDF81000411892FBF1F1280080B2091A6E
:10484000CBF80010DBF800003D2803DA3D20CBF860
:10485000000081E0DBF80000B0F5806F04DB40F27F
:10486000FF30CBF8000077E0DBF80000CBF8000069
:1048700072E0DFF89014BDF81020121D2B009BB2DF
:10488000DBF80000C3185A43121D91FBF2F004003C
:10489000200080B240F2F511884202DB4FF4FA703A
:1048A00004002000BDF80C1080B2884201D2ADF89F
:1048B0000C40DFF85414DFF84C04BDF80C2090FBDA
:1048C000F2F2121F2B009BB2DBF80000C31892FB20
:1048D000F3F2BDF81000121A0A6040F6B9300A6807
:1048E000824202DA0A68042A0EDA0A68042A02DA24
:1048F0000420086008E00A68824203DB40F6B83012
:10490000086001E008680860DFF8F803BDF80C20D3
:1049100090FBF2F2121F0968BDF81000411892FBDB
:10492000F1F1280080B2091ACBF80010DBF8000082
:104930002B2803DA2B20CBF800000DE0DBF8000079
:10494000B0F5806F04DB40F2FF30CBF8000003E0ED
:10495000DBF80000CBF80000DFF8AC030168BDF81D
:1049600010004118891EBDF80A00814208DADFF8FC
:1049700098030168BDF810004118881EADF80A00C0
:10498000280080B2D0F53C70022190FBF1F0BDF917
:104990001210020012B2D14203DA010009B24942F8
:1049A00009E00100BDF9122009B2914201DA0100CB
:1049B00001E0BDF91210ADF81210401CBDF9121043
:1049C000411AADF81E10BDF80610D1F5F0710222A3
:1049D00091FBF2F1BDF914200B001BB2DA4203DAAD
:1049E000080000B2404209E00800BDF9142000B2FE
:1049F000904201DA080001E0BDF91400ADF814009E
:104A0000091DADF82010BDF92010BDF914004118A2
:104A1000ADF81C1001211B20FFF767FD80198DF8F0
:104A200004009DF804000090BDF81E100120FFF75F
:104A30005CFD009940188DF804009DF8040000907A
:104A4000BDF81C100220FFF750FD009940188DF8AA
:104A500004009DF804000090BDF806100320FFF745
:104A600044FD009940188DF804009DF80400009062
:104A7000290089B20420FFF738FD009940188DF80D
:104A800004009DF804000090DBF80000010089B2EA
:104A90000520FFF72AFD009940188DF804009DF8C5
:104AA00004B099480068010089B20620FFF71DFD97
:104AB00010EB0B0B8DF804B09DF804B04FF4B271FD
:104AC0000A20FFF712FD10EB0B0B8DF804B09DF8D8
:104AD00004B040F2BB110820FFF707FD10EB0B0BF1
:104AE0008DF804B09DF804B040F2D9110920FFF709
:104AF000FCFC10EB0B0BBDF80800002807D1BDF83B
:104B00000A100B20FFF7F1FC10EB0B0083465AF460
:104B10004C7189B20D20FFF7E8FC10EB0B008DF80B
:104B200004009DF8046027213120FFF7DEFC861980
:104B30008DF804609DF804601A213220FFF7D5FC3F
:104B400086198DF804609DF8046005213320FFF775
:104B5000CCFC8619BDF816103520FFF7C6FC80196D
:104B60008DF80400380080B2484529D1504680B203
:104B7000042801DB012100E000219DF80460C9B296
:104B8000090189B27220FFF7B0FC86198DF8046024
:104B90009DF8049040F201110F20FFF7A6FC10EBE6
:104BA000090981214720FFF7A0FC83461BEB090B75
:104BB000EC214820FFF799FC060016EB0B0615E0E8
:104BC0009DF8049011210F20FFF78FFC10EB0909CD
:104BD00081214720FFF789FC83461BEB090BE72166
:104BE0004820FFF782FC060016EB0B064FF46271BB
:104BF0000720FFF77AFC80198DF804009DF804B0B7
:104C000040F203311C20FFF770FC10EB0B0B03216B
:104C10002C20FFF76AFC814619EB0B09BDF8080050
:104C2000002807D10021AF20FFF75FFC060016EB3C
:104C300009064DE0BDF80810A520FFF756FC060058
:104C400016EB09060221A620FFF74FFC83461BEB5B
:104C5000060B0221A820FFF748FC10EB0B008DF893
:104C60000400BDF80E10BDF810004143042091FB74
:104C7000F0F0B0F5803F08DABDF80E10BDF8100076
:104C80004143042091FBF0F101E04FF6FF719DF8E4
:104C9000046089B2B020FFF728FC86198DF8046003
:104CA0009DF804901421AE20FFF71FFC10EB0909BA
:104CB00040F20111AF20FFF718FC83461BEB090BF4
:104CC000BDF80A10AD20FFF710FC060016EB0B062E
:104CD000BDF808000D490860BDF80A000C490860DD
:104CE000BDF810000B4908604DF6AD61FE20FFF7DE
:104CF000E7FB3000C0B20BB0BDE8F08F9871092817
:104D0000FC710928C0FC9B01F87109280072092870
:104D1000047209280872092830B4614B1818C009B8
:104D2000604C14EB001404290DD223681F25C80021
:104D30008540AB43D2B212F01F02C90012FA01F152
:104D4000194321600CE0091F63681F25C8008540D6
:104D5000AB43D2B212F01F02C9008A401A4362600C
:104D600030BC7047002A04D1012212FA01F14160DF
:104D700003E0012212FA01F18160704710B489004A
:104D8000436C0F248C40A34312F00F0212FA01F17E
:104D90001943416410BC704710B4836C01248C40EB
:104DA000A34312F0010212FA01F11943816410BC0D
:104DB000704710B4C36C01248C40A34312F001026D
:104DC00012FA01F11943C16410BC704710B44900D4
:104DD0001031C36C03248C40A34312F0030212FA77
:104DE00001F11943C16410BC70474269012212FAF3
:104DF00001F141614069704710B4836901248C401E
:104E0000A34312F0010212FA01F11943816110BCAF
:104E1000704710B44900036C03248C40A34312F084
:104E2000030212FA01F11943016410BC7047F8B58E
:104E300005000E0014000027002D2ED0002C2CD0D1
:104E4000226831002800FFF78DFF227A3100280008
:104E5000FFF762FF626931002800FFF79DFFA2693A
:104E600031002800FFF7A5FFE26931002800FFF7B5
:104E7000ADFF626831002800FFF780FFE268310073
:104E80002800FFF7C6FF31002800FFF7AEFF2269B8
:104E900031002800FFF7B0FF00E0034F3800F2BDFB
:104EA0000000CFBF0000304001005A002DE9F44F50
:104EB000DFF8D822DFF8D8321B68DFF8D842246840
:104EC000DFF8D4522D68DFF8D4623668DFF8D0728C
:104ED0003F68DFF8D0C2DCF800C0DFF8CCE2DEF8D3
:104EE00000E0DFF8C882D8F80080DFF8C492D9F873
:104EF0000090DFF8C0A2DAF800A0002800F01581C9
:104F0000002900F012810A68022A06D191F82620B1
:104F1000002A02D15FF0000B03E0D1F804B0BBF12E
:104F2000010B91F82420002A01D0012200E0002288
:104F300062F3104333F440436BF30303022262F342
:104F4000196303600A7812F0030262F319640464BF
:104F500091F82520002A01D0012200E0002262F30E
:104F60008615CA7E002A01D0012200E0002262F3E9
:104F70008A254A7E002A01D0012200E0002262F345
:104F800008258A7E002A01D0012200E0002262F377
:104F900049258A6B521E12F00F0262F313450A690B
:104FA000521E12F00702ED08ED0015434A6962F344
:104FB00004154A69520862F3451585640A7B002A84
:104FC00001D0012200E0002262F308260A7E002AB6
:104FD00001D0012200E0002262F349268A68521EB5
:104FE00012F01F02760976011643C0F800630A7FAB
:104FF00002F0FF023F0A3F02174391F8202002F01F
:10500000FF0262F31747C0F8107391F82720002AB7
:1050100001D0012200E0002262F3082C0A69521E2E
:1050200012F007025FEADC0C5FEACC0C52EA0C0CCF
:105030004A6962F3041C4A69520862F3451CC0F8CD
:1050400044C00A7B002A01D0012200E0002262F362
:10505000082E8A68521E12F01F025FEA5E1E5FEA87
:105060004E1E52EA0E0E0A68012A01D1012200E00A
:10507000002262F3104EC0F800E291F83C2002F0EA
:10508000FF025FEA18285FEA082852EA0808C0F819
:10509000048391F82820002A01D0012200E0002298
:1050A00062F35969CA6A012A01D1012200E0002293
:1050B00062F318694A6B012A01D1012300E0002341
:1050C000009A63F3104991F8303003F0FF035FEA70
:1050D00019295FEA092953EA0909C0F8509091F8A3
:1050E000443003F0FF035FEA1A2A5FEA0A2A53EA10
:1050F0000A0AC0F804A28B6CC0F8883F096CC0F89B
:10510000C81F002A10D0002050600020106000202E
:1051100090600020D060002010620020D06200204B
:105120001063DFF89400506300221000BDE8F28F96
:10513000DFF8881001605FF4401101640021816490
:1051400040F20711C0F800130022C0F80423002227
:10515000C0F8102300224264C0F800120021C0F8F9
:105160000412002101650021C0F8C81E0021C0F80A
:10517000881E0021C0F8C81F0021C0F8881F002128
:10518000C0F8081F0021C0F8481F70470160AA003E
:105190000C912810109128101491281018912810A3
:1051A0001C91281020912810249128102891281053
:1051B0002C91281030912810EFCDAB000F00000388
:1051C0000069C84010F001007047012212FA01F195
:1051D00081607047012212FA01F14160704710B4FA
:1051E0008900436C0F248C40A34312F00F0212FA83
:1051F00001F11943416410BC704780B5C9B2002960
:105200000ED00100C9B2082291FBF2F302FB131188
:10521000494AC0B2C010C0011044FFF7D6FF0DE0EC
:105220000100C9B2082291FBF2F302FB1311424ABA
:10523000C0B2C010C0011044FFF7CCFF01BD80B563
:105240000100C9B2082291FBF2F302FB13113A4AA2
:10525000C0B2C010C0011044FFF7B2FFC0B202BD1F
:1052600010B5C9B200290BD1D2B2002A02D0022A4D
:1052700002D003E00F220BE00B2209E00A2207E034
:10528000D2B2042A01D10C2200E00E2212F0070251
:105290000100C9B2082391FBF3F403FB1411264B60
:1052A000C0B2C010C0011844FFF799FF10BD2DE92E
:1052B000F8418DB004000E0015001F0034210022BB
:1052C000E8464046FEF774F8F6B2002E0ED1FFB263
:1052D000002F02D0022F03D005E00F2001900DE037
:1052E000082001900AE00820019007E0FFB2042F97
:1052F00002D10F20019001E00E2001902000C0B2E9
:10530000C0280FD02100C9B208206A4691FBF0F3F3
:1053100000FB131108482300DBB2DB10DB0118444B
:10532000FFF785FD2900C9B22000C0B2FFF765FF75
:105330000EB0BDE8F081000000003140D0F8080355
:10534000C005C00D704710F541710A6852F48032F3
:105350000A6010F541710A6832F480320A60D0F8B0
:1053600004037047C0F840127047D0F80802C00527
:10537000C00D7047D0F80802C0F3C030704738B590
:1053800005002800FFF7F1FF04002800FFF7F2FFF7
:105390000419002C01D1012000E00020C0B232BD70
:1053A0000068C0F38130002801D1802000E0402057
:1053B0007047016851F00041016070472030026879
:1053C00061F39B620260704780B5FFF7B7FF02BDD3
:1053D00080B5FFF7B8FF01BD022801D3012010E01E
:1053E0000B00DBB2042B01DB01200AE0DFF8F8340C
:1053F00003EB8000C9B2405C824201D3012000E08F
:1054000000207047F8B504000F0015001E00022CA4
:1054100001D301202AE02A003900C9B22000FFF799
:10542000DBFF012801D1012020E006983900C9B234
:1054300002291ED1B6F5803F19D2202817D24FF489
:10544000C052DFF8A81463030B4403EB8503134435
:105450001F6866F317271F606403214401EB850171
:1054600011440A6860F3C7020A600020F2BD0120FF
:10547000FCE7FFB2032F1FD1B6F1807F1AD220289C
:1054800018D24FF4E052DFF8641463030B4403EBCB
:10549000850313441F6807F0FF0757EA06271F60BC
:1054A0006403214401EB850111440A6860F3C702DB
:1054B0000A60DAE70120D9E70120D7E700B200123D
:1054C000C0B27047F8B505000E001700280000B202
:1054D000FFF7F4FF04002000C0B2022801D301202E
:1054E00024E03A003100C9B22000C0B2FFF774FFD7
:1054F000012801D1012019E0DFF8F0132000C0B22B
:10550000400308442A00D2B200EB8200D0F8000C1D
:10551000F6B266F3092067F30700E4B2640321449E
:10552000EDB201EB8501C1F8000C0020F2BD70B5B1
:1055300004000D001600022C01D301201DE03200F2
:105540002900C9B22000FFF747FF012801D101203F
:1055500013E0DFF898136003085850F0004050F053
:10556000407050F47F00EDB265F3092066F3070048
:105570006203885064030859002070BD0100C020F8
:10558000C9B2002905D0022907D004D3032906D0C7
:1055900006E0122004E0622002E07A2000E01A20F7
:1055A000C0B270470100C020C9B2002905D002294D
:1055B00007D004D3032906D006E0112004E06120BF
:1055C00002E0792000E01920C0B270470100C0203D
:1055D000C9B2002905D0022907D004D3032906D077
:1055E00006E0102004E0602002E0782000E01820AF
:1055F000C0B270470100C020C9B200290BD00229F7
:105600000DD00AD304290ED00BD306290FD00CD30A
:1056100007290ED00EE013200CE014200AE06320CE
:1056200008E0642006E07B2004E0292002E01B2043
:1056300000E01C20C0B2704701000020C9B2002960
:1056400005D0022907D004D3032906D006E0132091
:1056500004E0132002E0132000E01320C0B27047E2
:1056600001000020C9B2002905D0022907D004D3C7
:10567000032906D006E0132004E0132002E01320E3
:1056800000E01320C0B2704701000020C9B2002919
:1056900005D0022907D004D3032906D006E0132041
:1056A00004E0132002E0132000E01320C0B2704792
:1056B00001000020C9B200290BD002290DD00AD365
:1056C00004290ED00BD306290FD00CD307290ED0F6
:1056D0000EE013200CE013200AE0132008E0132052
:1056E00006E0132004E0132002E0132000E0132062
:1056F000C0B27047C9B2082902D0102946D096E03E
:10570000DFF8EC110200D2B251F82220126832F414
:1057100040420300DBB251F823301A600200D2B2DB
:1057200051F82220D2F80022520952010300DBB2C4
:1057300051F82330C3F800220200D2B251F82220DF
:10574000D2F8002252F007020300DBB251F82330F6
:10575000C3F800220200D2B251F82220D2F800236E
:10576000520952010300DBB251F82330C3F8002381
:105770000200D2B251F82220D2F8002352F00702E0
:10578000C0B251F82000C0F8002350E0DFF86011EB
:105790000200D2B251F82220126832F440420300D3
:1057A000DBB251F823301A600200D2B251F8222045
:1057B000126852F480420300DBB251F823301A60C1
:1057C0000200D2B251F82220D2F80022520952012E
:1057D0000300DBB251F82330C3F800220200D2B23A
:1057E00051F82220D2F8002252F00F020300DBB25F
:1057F00051F82330C3F800220200D2B251F822201F
:10580000D2F80023520952010300DBB251F82330D1
:10581000C3F800230200D2B251F82220D2F80023AC
:1058200052F00F02C0B251F82000C0F800237047B8
:105830002DE9F84307000D00140008213800C0B21C
:10584000FFF758FFDFF8AC603800C0B2305C0828C2
:105850000FD03800C0B2305CC010DFF89C1011EBE4
:10586000C01101203A00D2B2B25C12F0070290409F
:105870000860DFF87C8029783800C0B258F8200032
:10588000FFF770FD6D1C3800C0B258F82000FFF71C
:1058900087FD81463800C0B258F82000FFF765FD4B
:1058A0008145F0D0641E002CE3D13800C0B258F816
:1058B0002000FFF764FD0028F7D03800C0B2305C4C
:1058C00008280ED03800C0B2305CC010DFF82C10B1
:1058D00011EBC0110120FFB2F25D12F007029040FF
:1058E0000860BDE8F1830000A49028100000044087
:1058F00000070828F47109280400314008003140ED
:105900002DE9F84380460D0016001C000821404692
:10591000C0B2FFF7EFFEDFF874734046C0B2385CE8
:1059200008280FD04046C0B2385CC010DFF86013C2
:1059300011EBC01101204246D2B2BA5C12F007024C
:1059400090400860DFF84C934046C0B259F8200000
:10595000FFF73AFD002805D04046C0B259F82000B4
:10596000FFF736FD29784046C0B259F82000FFF70E
:10597000F9FC6D1C4046C0B259F82000FFF7FFFC4F
:105980000028F7D04046C0B259F82000FFF71CFDB0
:105990000028F7D04046C0B259F82000D0F84003A4
:1059A0003070761C641E002CDCD14046C0B2385CDE
:1059B000082810D04046C0B2385CC010DFF8D812BA
:1059C00011EBC01101205FFA88F817F8082012F0D7
:1059D000070290400860BDE8F1832DE9F84F2DEDF6
:1059E000028B9EB006000F009946042080B202FB95
:1059F00000F2AA48B0FBF2F8A84802FB180000EE3B
:105A0000100AB8EE400B01EE102AB8EE411B80EEF2
:105A1000010BBFEEED0B10EE100B08EE100A342157
:105A2000002201AC2000FDF7C3FC3C2100220EAC9B
:105A30002000FDF7BDFC30004946C0B2C9B2884223
:105A400001D1012000E000202A9DDFF854A24FF48C
:105A500070725146C0B2FBF7A6FF48462900C0B29B
:105A6000C9B2884201D1012000E000202B9C40F205
:105A7000C1325146C0B2FBF796FF062002902800C3
:105A8000C0B2FFF7EDFD8DF80C002800C0B2FFF7A3
:105A900089FD82465FF0080B2800C0B2FFF782FD47
:105AA000804D01AA9AFBFBF10BFB11AA5146C0B233
:105AB000C010C0012844FFF7BAF9062002904846FA
:105AC000C0B2FFF7B9FD8DF80C004846C0B2FFF731
:105AD00055FD82465FF0080B4846C0B2FFF74EFD09
