:020000041028C2
:1000000000000C28496C28105D73281079712810A5
:1000100061732810657328106973281000000000B0
:100020000000000000000000000000001172281015
:100030006D7328100000000071732810757328106C
:100040008F692810B5692810DB692810016A28100B
:10005000276A28104D6A2810736A2810996A281098
:10006000797328107D7328108173281085732810E8
:10007000897328108D732810917328109573281098
:100080002DE9F94FADF5406D99B00D0017006846A8
:10009000582101F029FA2800C0B20A902800C0B205
:1000A0000B903800C0B20C903800C0B20D905FF0D9
:1000B000000A8DF858508DF859508DF85A7019A8CB
:1000C000032101FB0AF1084416A9032201F04EFAAC
:1000D0001AF1010ABC24DFF860BC3800C0B26043EA
:1000E00058442900C9B201224254DFF8509C38001C
:1000F000C0B2604348442900C9B2465C0098401C25
:100100000090019850FA86F0019002992A00D2B22C
:100110003000C0B200FB0211029103993A00D2B242
:100120003000C0B200FB02110391DDE90423280076
:10013000C0B22900C9B248433100C9B24843C1170F
:1001400010185941CDE90401DDE906233800C0B299
:100150003900C9B248433100C9B24843C117101829
:100160005941CDE90601DDE90801EDB2FFB27D4359
:10017000F6B206FB05F2D31780185941CDE9080104
:10018000BAF1010FC0F24A83BAF1010A18A819A9FD
:10019000032202FB0AF21144032201F0E7F99DF861
:1001A00062509DF860609DF8618078E0761E2800BE
:1001B000C0B2604358443100C9B201224254280001
:1001C000C0B2604348443100C9B2475C0098401C4B
:1001D0000090019850FA87F0019002993200D2B253
:1001E0003800C0B200FB0211029103992A00D2B27A
:1001F0003800C0B200FB02110391DDE904010200E6
:100200000B003000C0B23100C9B248433900C9B256
:100210004843C11710185941CDE90401DDE9060131
:1002200002000B002800C0B22900C9B248433900BF
:10023000C9B24843C11710185941CDE90601DDE99B
:10024000080102000B003000C0B22900C9B24843C7
:10025000FFB27843C11710185941CDE908013000A9
:10026000C0B20A99884202DA3000C0B20A900B98F4
:100270003100C9B2884202DA3000C0B20B902800C7
:10028000C0B20C99884202DA2800C0B20C900D98D6
:100290002900C9B2884202DA2800C0B20D903000AD
:1002A000C0B2002825D02800C0B2604358443100B5
:1002B000C9B2084410F8010C00281AD12800C0B2B5
:1002C000604348443100C9B2084410F8010C9DF85D
:1002D000681C88420DD39DF8900C2900C9B2614377
:1002E00049443200D2B2114411F8011C8842BFF4D3
:1002F0005DAF4046C0B2BB2880F2A0802800C0B2EB
:10030000604358444146C9B208444078002840F050
:1003100095802800C0B2604348444146C9B20844B1
:1003200040789DF8681C8842C0F088809DF8900C49
:100330002900C9B2614349444246D2B211444978C6
:1003400088427BD318F101082800C0B260435844AA
:100350004146C9B2012242542800C0B26043484419
:100360004146C9B2475C0098401C0090019850FA81
:1003700087F0019002994246D2B23800C0B200FB29
:100380000211029103992A00D2B23800C0B200FBD8
:1003900002110391DDE9040102000B004046C0B2E6
:1003A0004146C9B248433900C9B24843C117101881
:1003B0005941CDE90401DDE9060102000B002800E6
:1003C000C0B22900C9B248433900C9B24843C11775
:1003D00010185941CDE90601DDE9080102000B00C2
:1003E0004046C0B22900C9B24843FFB27843C117A2
:1003F00010185941CDE908014046C0B20A99884217
:1004000002DA4046C0B20A900B984146C9B288420F
:1004100002DA4046C0B20B902800C0B20C99884264
:1004200002DA2800C0B20C900D982900C9B28842A7
:10043000BFF65FAF2800C0B20D905AE72800C0B2E7
:10044000002800F0F7803700C5E02800C0B2604304
:1004500058443900C9B20844012100F8BC1C2800E6
:10046000C0B2604348443900C9B2084410F8BCCC5B
:100470000099491C0091019850FA8CF10191029960
:100480003A00D2B26046C0B200FB02110291039959
:100490002A00D2B2521E6046C0B200FB0211039184
:1004A000DDE9040102000B003800C0B23900C9B216
:1004B00048436146C9B24843C11710185941CDE9B4
:1004C0000401DDE9060102000B002800C0B2401E55
:1004D0002900C9B2491E48436146C9B24843C11701
:1004E00010185941CDE90601DDE9080102000B00B1
:1004F0003800C0B22900C9B2491E48435FFA8CFCDB
:100500000CFB00F0C11710185941CDE90801380063
:10051000C0B20A99884202DA3800C0B20A900B9839
:100520003900C9B2884202DA3800C0B20B90280004
:10053000C0B2401E0C99884203DA2800C0B2401EA7
:100540000C900D982900C9B2491E884203DA280090
:10055000C0B2401E0D907F1C40463900C0B2C9B2E7
:10056000884225D32800C0B2604358443900C9B23C
:10057000084410F8BC0C00281AD12800C0B260430F
:1005800048443900C9B2084410F8BC0C9DF8681CF6
:1005900088420DD39DF8900C2900C9B261434944AB
:1005A0003A00D2B2114411F8BC1C8842BFF44DAFDE
:1005B0008DF85CE0781E8DF85D00681E8DF85E0099
:1005C00019A8032101FB0AF1084417A9032200F02E
:1005D000CDFF1AF1010A40463900C0B2C9B28842C3
:1005E00028D32800C0B2604358443900C9B2084437
:1005F00010F8BC0C00281BD12800C0B2604348444E
:100600003900C9B2084410F8BC0C9DF8681C884237
:100610000ED39DF8900C2900C9B2614349443A00B9
:10062000D2B2114411F8BC1C884201D3BE4693E7F4
:100630007F1CD0E72800C0B27728BFF6A1ADBDE08F
:100640002800C0B2604358443100C9B208440121B7
:1006500080F8BC102800C0B2604348443100C9B2E1
:10066000084490F8BC700099491C0091019850FA18
:1006700087F1019102993200D2B23800C0B200FB7A
:100680000211029103992A00D2B2521C3800C0B262
:1006900000FB02110391DDE904233000C0B23100F8
:1006A000C9B248433900C9B24843C117101859416B
:1006B000CDE90401DDE906232800C0B2401C290071
:1006C000C9B2491C48433900C9B24843C117101880
:1006D0005941CDE90601DDE908013200D2B22B0013
:1006E000DBB25B1C5A43FFB27A43D31780185941DF
:1006F000CDE908013000C0B20A99884202DA31001F
:10070000C9B20A910B983100C9B2884202DA3100AD
:10071000C9B20B912800C0B2401C0C99884203DA80
:100720002900C9B2491C0C910D982900C9B2491C75
:10073000884203DA2900C9B2491C0D91761C404653
:100740003100C0B2C9B2884225D32800C0B260438C
:1007500058443100C9B2084490F8BC0000281AD1AE
:100760002800C0B2604348443100C9B2084490F840
:10077000BC009DF8681C88420DD39DF8900C2900A0
:10078000C9B2614349443200D2B2114491F8BC105D
:100790008842BFF455AF8DF858C0701E8DF85900CF
:1007A000681C8DF85A0019A8032101FB0AF10844BE
:1007B00016A9032200F0DAFE1AF1010A40463100C0
:1007C000C0B2C9B28842FFF4DBAC2800C0B26043BB
:1007D00058443100C9B2084490F8BC0000281BD12D
:1007E0002800C0B2604348443100C9B2084490F8C0
:1007F000BC009DF8681C88420ED39DF8900C29001F
:10080000C9B2614349443200D2B2114491F8BC10DC
:10081000884201D3B44692E7761CCFE701980128BD
:1008200017DB9DED020AB8EEC00ADDED010AF8EE15
:10083000E00A80EE200A8DED0E0A9DED030AB8EE67
:10084000C00ADDED010AF8EEE00A80EE200A8DED27
:100850000F0ADDF8640C6946582200F097FE0DF58A
:10086000406D1BB0BDE8F08F2DE9F84FAEB006002B
:100870000F0014001D0018A8582100F035FE38782C
:1008800000282AD07868FA681218B86839690918F7
:100890007869101A002801D5002001E07869101A43
:1008A000B86178698018BC2801DBBB2201E0786957
:1008B0008218FA617869081A002801D5002001E041
:1008C0007869081A386278694018782801DB77213E
:1008D00001E078694118796207E00020B861BB2027
:1008E000F8610020386277207862D7F8208001E034
:1008F00018F10108786A4045C0F25481D7F8189081
:10090000ABE09FEDC61AB4EE410AF1EE10FAC0F268
:10091000A280B0EE001AB4EE410AF1EE10FA40F1F6
:100920009A809FEDBF0AF4EE400AF1EE10FAC0F291
:100930009280B7EE000AF4EE400AF1EE10FA40F1B0
:100940008A809DED0C0AB8EEC00A00EE90AAF8EE7F
:10095000E00AB0EE001AC0EE810A30EE200ADDEDAA
:100960000E0AF8EEE00A01EE10BAB8EEC11AF0EE87
:10097000001A81EE211A70EE810A9DED101A31EEF7
:10098000401ADDED101A31EEC00A21EE000A9DED8D
:10099000111A31EE601ADDED111A71EEE00A01EE66
:1009A000200AB7EEC00A00F039FEB7EEC00B00EE29
:1009B00090AAF8EEE00A9FED9B1A60EE810AB4EE71
:1009C000600AF1EE10FA46D53CE000EE10AAB8EE4F
:1009D000C00A00EE90BAF8EEE00A80EE200A0BFBA7
:1009E0000AF000EE900A9DED021AB8EEC11AF8EE78
:1009F000E00AC1EE200ABAF1080F02DABBF1040FD7
:100A000020DBBAF1040FBFF67CAFBBF1080FBFF6D5
:100A100078AF9FED851ADDED101A71EE611A9FED2A
:100A2000832AF4EE421AF1EE10FA0BDADDED101A19
:100A300031EE611ADFEDBF1AB4EE611AF1EE10FA71
:100A40007FF55FAF18980299884204DA18A802A9C6
:100A5000582200F09BFD19F10109F8694845FFF69D
:100A600047AFBC21B44801FB08F2104410F809005C
:100A70000028F0D1DFF81C0A01FB08F1084410F847
:100A80000900C0B26428E6DBFF20009064234046E2
:100A90000200D2B248460100C9B202A8FFF7F0FA3C
:100AA000002D35D02868012832DB9DED100AD5EDE8
:100AB0000E0A30EE600ADDED100A95ED0E1A70EEAA
:100AC000C10A20EE200ADDED110A95ED0F1A70EE35
:100AD000C10A9DED111AD5ED0F1A31EE611A00EE23
:100AE000810AB7EEC00A00F099FDB7EEC00B02987C
:100AF0001E2806DAF3EE020AB4EE600AF1EE10FAEE
:100B0000A9D4F2EE040AB4EE600AF1EE10FAA2D40F
:100B1000DDF834A00C98BAEB000A1AF1010ADDF8EE
:100B20003CB00E98BBEB000B1BF1010B0298801E32
:100B3000B22890D2BAF1010F8DDBBBF1010F8ADB35
:100B4000002C3FF442AF20680128FFF63EAF9DED38
:100B5000100AD4ED0E0A30EE600ADDED100A94EDB5
:100B60000E1A70EEC10A20EE200ADDED110A94ED96
:100B70000F1A70EEC10A9DED111AD4ED0F1A31EE65
:100B8000611A00EE810AB7EEC00A00F047FDB7EE29
:100B9000C00BF2EE040AB4EE600AF1EE10FA7FF533
:100BA00014AF58E7189801282EDB3878002818D0A1
:100BB00097ED010AB8EEC00ADDED260A30EEC00A54
:100BC000BDEEC00A87ED030A97ED020AB8EEC00A2F
:100BD000DDED270A30EEC00ABDEEC00A87ED040A3B
:100BE00003E00020F86000203861012038709DED9E
:100BF000260ABDEEC00A87ED010A9DED270ABDEE6B
:100C0000C00A87ED020A01E000203870300018A900
:100C1000582200F0BBFC2FB0BDE8F08F0100003F70
:100C20009B99193F9A99993E0000BC420100A0424D
:100C300070B5AEB0040018A8582100F055FC00258E
:100C400000E06D1C782D6DDA00265EE03B4801FB6C
:100C500005F10844805DC0B2C82861DBFF20009028
:100C6000C82328000200D2B230000100C9B202A895
:100C7000FFF706FA0D990C98091A491C0F9A0E985D
:100C8000121A521C02981F38452849D2062947DB00
:100C9000062A45DB00EE101AB8EEC00A00EE902AD4
:100CA000F8EEE00A80EE200A514300EE901A9DED26
:100CB000021AB8EEC11AF8EEE00AC1EE200A9FED62
:100CC0009F1AB4EE410AF1EE10FA29DBB1EE041AD4
:100CD000B4EE410AF1EE10FA22D59FED990AF4EE36
:100CE000400AF1EE10FA1BDB9FED960AF4EE400A83
:100CF000F1EE10FA14D518980299884210DA18A863
:100D000002A9582200F042FC0AE0BC2E99DABC216C
:100D1000DFF8840701FB05F21044805D002895D0C0
:100D2000761CF2E7200018A9582200F02FFC2EB004
:100D300070BD00000000A0C2585F082838070828CE
:100D400070B52DED048B0400606801280BDA0020DB
:100D50002064002060640020A0640020E064DFF8CC
:100D60003C072065E7E09FED789A94ED0E8AD4ED7C
:100D70000F8AD4E9040100F061FC00EE100AD4ED02
:100D8000020AF8EEE00A00EEC80A20EE090A84ED35
:100D9000100AD4E9060100F051FC00EE100AD4ED6F
:100DA000030AF8EEE00A00EEE80A20EE090A84EDF4
:100DB000110AD4E9080100F041FC00EE100AD4ED5C
:100DC000020AF8EEE00A00EEE80A20EE090A84EDD5
:100DD000120A94ED100AD4ED110A30EE209A94ED27
:100DE000100AD4ED110A30EE600AD4ED100A94ED29
:100DF000111A70EEC10A20EE200AD4ED120AB1EEEB
:100E0000001A60EE810A94ED121A00EE810AB7EE24
:100E1000C00A00F003FCB7EEC00B39EE400AF0EE5A
:100E2000000A80EE200AD4ED120AB1EE609AD4EDE9
:100E3000100A70EEC09A29EE090A09EEA90AB7EE67
:100E4000C00A00F0EBFBF7EEC00B9FED400AF4EE9A
:100E5000400AF1EE10FA04DB89EE200AC9EEA00A7E
:100E600003E09FED3B0AFFEE000A002000219FED0A
:100E7000381ADFED371A226B00E0521C636B934285
:100E800036DBA36A08E0B5EE402AF1EE10FA2DD564
:100E9000491C71EEA21A29E0E56A9D42EDDBDFF8FC
:100EA000F455BC2606FB02F63544ED5C642D1DDBD3
:100EB00002EE103AB8EEC22A72EE482A02EE102A6A
:100EC000B8EEC22A32EE683A22EE802A03EE202AD9
:100ED00023EE003A00EEE23A63EE032AB5EE402A32
:100EE000F1EE10FACFDD401C31EE221A5B1CD3E785
:100EF000012806DB02EE100AB8EEC22A81EE021AC1
:100F000001E09FED131A012906DB02EE101AB8EE7C
:100F1000C22AC1EE821A01E0DFED0D1AF4EE411A89
:100F2000F1EE10FA03D5B1EE400AF1EE600A84ED5D
:100F3000130AC4ED140ABDEC048B70BDCECC4C3E3C
:100F40009B99193E9A99193F8180803B7012833A90
:100F50000000000070B52DED048BADF50C7DDFF8C1
:100F6000400500F099FB00F000FD402340225FF4B3
:100F7000E131042001F010FA6CA8DFF828152822CE
:100F800000F004FB62A8DFF82015282200F0FEFA2A
:100F90001E2100225AAC200001F0FEFA9FEDD29AE9
:100FA000BFEE008AF0EE489ADFEDD08A10E0B7EE8F
:100FB000E01A8DED001BB7EEC00A53EC102BDFF8E2
:100FC000EC145AA801F01CFB5AA9042001F036F8D1
:100FD00045F620042200DFF8D814DFF8B8542800C2
:100FE00000F0C4FA21000022DFF8AC542E003000DB
:100FF00001F0D2FA02A8FFF71BFE00222100280010
:1010000001F0CAFA44A8582100F06EFA2EA858211F
:1010100000F06AFA9DF8B00100281AD19DF8880105
:10102000002816D002AB002262A918A8FFF71CFC0A
:101030002EA818A9582200F0A9FA02AB2EAA6CA972
:1010400018A8FFF711FC44A818A9582200F09EFA2E
:1010500015E002AB00226CA918A8FFF705FC44A814
:1010600018A9582200F092FA02AB44AA62A918A863
:10107000FFF7FAFB2EA818A9582200F087FA449827
:10108000012829DB2E98012826DB9DED3C0ADDEDA9
:10109000520AB4EE600AF1EE10FA1DD518A844A960
:1010A000582200F073FA44A82EA9582200F06EFAD4
:1010B0002EA818A9582200F069FA18A86CA92822AD
:1010C00000F064FA6CA862A9282200F05FFA62A816
:1010D00018A9282200F05AFA029801286EDB002095
:1010E000DFF8D01308700020DFF8CC13088002A8C6
:1010F000FFF726FE9DED150A28EE800AF7EE000A9E
:1011000070EEE80A00EE890AB0EE409A9DED160AEC
:1011100028EE800AF7EE000A70EEE80A00EEA90A4F
:10112000F0EE409A29EE090A09EEA90AB7EEC00AC4
:1011300000F074FAB7EEC00BDFEDB40AB4EE600A4B
:10114000F1EE10FA18DBC9EE000ACDED150A89EEB2
:10115000800A8DED160A1598DFF86013086016985E
:10116000DFF85C1308601098DFF8581308601198D6
:10117000DFF8541308600FE0002015908DED168AFB
:101180001598CE4908601698CD4908601098CD4949
:1011900008601198CC490860CC489DED100ADFED3D
:1011A000BB0A30EE200A80ED010A9DED110ADFED49
:1011B000B80A30EE200A80ED020A10E0BE4801882D
:1011C000491C01800188152904DB152101800120BB
:1011D000B8490870BD4800214160002181604498F1
:1011E00000280AD12E98002807D1B9480188491C47
:1011F0000180B6480021016009E00020B449088060
:101200000020B4490870B1485FF07E5101601021A0
:10121000AE4C220001290EDB12F01F004118BFF373
:101220004F8FAD480260203220390129F9DABFF32F
:101230004F8FBFF36F8F9FED2C0ADFED2B0A18A89D
:10124000582100F051F976A8582100F04DF9449842
:10125000012859DB2E98012856DB0298012853DB20
:101260009DED521ADDED101A31EE611ADDED521AC4
:101270009DED102A71EEC21A21EE211ADDED531AEE
:101280009DED112A71EEC21A9DED532ADDED112A52
:1012900032EE622A01EE821ADDED3C1A9DED102A33
:1012A00071EEC21A9DED3C2ADDED102A32EE622A63
:1012B00061EE821A9DED3D2ADDED112A32EE622AA1
:1012C000DDED3D2A9DED113A72EEC32A42EE221A5F
:1012D000B4EE611AF1EE10FA0AD518A844A9582202
:1012E00000F054F909E000BF00000000CDCCCC3E76
:1012F00018A82EA9582200F049F9269877490860C5
:1013000027987749086026E04498012810DB18A840
:1013100044A9582200F03AF92698704908602798A5
:101320006F49086076A82EA9582200F02FF912E024
:101330002E9801280FDB18A82EA9582200F026F9B4
:1013400026986649086027986549086076A844A9E8
:10135000582200F01BF95E4801880B2904DB0B21A1
:10136000018001205B4908701898012821DB029850
:1013700001281EDB9DED260ADDED100A70EE600AE5
:101380009DED270A9DED111A30EE411ADDED161A7A
:101390009DED150AB1EE402A9DED150A20EE800A5A
:1013A000DDED162A01EE220A60EEA10A41EE020AE4
:1013B00058E0189801282BDB0298002828D13D48D6
:1013C0000078002824D19DED260A3E48D0ED000A81
:1013D00070EE600A9DED270A3B4890ED001A30EE52
:1013E000411A3748D0ED001A344991ED000AB1EEA8
:1013F000402A91ED000A20EE800AD0ED002A01EE8D
:10140000220A60EEA10A41EE020A2BE07012833A32
:101410001898002826D10298012823DB2D4800784F
:1014200000281FD12D4890ED000ADDED100A70EE66
:10143000600A2B4890ED000A9DED111A30EE411A1A
:10144000DDED161A9DED150AB1EE402A9DED150A47
:1014500020EE800ADDED162A01EE220A60EEA10AD6
:1014600041EE020A94ED031AF2EE041AB4EE611A88
:10147000F1EE10FA3FF59BAD1A495AA801F0C0F8F9
:101480005AA9042000F0DAFDA2E500BF0000BCC2AA
:10149000000070C238070828585F0828000080BF85
:1014A00080B2E60E8C702810B4702810907228104C
:1014B00078B708284D140928481409280014092869
:1014C000F006082804140928081409281410002814
:1014D0004A1409284E14092870EF00E00C1409285A
:1014E00010140928C0722810002201F0A9B8F0B425
:1014F0000246106895681318506803EB5004C00743
:1015000048BF4D44A3422DD013F8016B16F00300E1
:1015100004BF13F8010BC01C31090F2907D113F8C0
:10152000011B0F3103E013F8017B05F8017B401E1E
:10153000F9D10029E6D013F8010BC6F38106032E7A
:1015400008BF13F8016B00EB062040422844002638
:10155000B71E8F421EBF10F8017B05F8017B761C79
:10156000F6D1CFE7F0BC02F10C00704762B38B07F5
:1015700008D0521E11F8013B00F8013B00F0248016
:101580008B07F6D1830740F0208000BF103A07D3C5
:1015900030B4B1E83810103AA0E83810F9D230BCB5
:1015A000530724BFB1E80810A0E8081044BF51F861
:1015B000043B40F8043BD20724BF31F8022B20F84B
:1015C000022B44BF0B7803707047121F17D35B00C8
:1015D00009D151F8043B20F8023B1B0C121F20F8E4
:1015E000023BF6D20BE051F8043B00F8013B1B0A2A
:1015F00020F8023B1B0C121F00F8013BF3D238BF4E
:10160000121D521E24BF11F8013B00F8013BF8D80F
:1016100070470268531C036011707047B5EEC00B31
:10162000F1EE10FA02D4B1EEC00B70476FF0004C2F
:1016300020EE10CBAFF300807047000011F00043A4
:1016400003D54942404261F10001B1B1B1FA81F2E2
:1016500041409040C2F1200261FA02F181EA0000AB
:1016600018BF40F0010002F19D01020643EAC1519A
:1016700072F1004241EB1020704758B1B0FA80F28D
:101680009040C2F19D02010643EAC25271F100414D
:1016900042EB10207047000080B50549086000F05B
:1016A000E9FF01F041F9002001F0CAF901BD000095
:1016B00028140928022801D3012010E00B00DBB216
:1016C000042B01DB01200AE0DFF8B43303EB8000D8
:1016D000C9B2405C824201D3012000E00020704783
:1016E000F8B506000F0015001C00022E01D30120E2
:1016F0001DE02A003900C9B23000FFF7DBFF0128E6
:1017000001D1012013E03800C0B2002812D1B4F595
:10171000807F0DD2DFF86C037603304400EB850048
:1017200010F58050016864F30F2101600020F2BDC4
:101730000120FCE7FFB2012F10D1B4F5803F0BD29E
:10174000D0487603304400EB850010F5A0500168C6
:1017500064F317210160E9E70120E8E70120E6E7EB
:1017600000B20012C0B27047F8B505000E001700B5
:10177000280000B2FFF7F4FF04002000C0B20228E6
:1017800001D3012023E03A003100C9B22000C0B2E9
:10179000FFF790FF012801D1012018E0B94920008E
:1017A000C0B2400308442A00D2B200EB8200D0F855
:1017B000000CF6B266F3092067F30700E4B2640395
:1017C0002144EDB201EB8501C1F8000C0020F2BD0F
:1017D00070B504000D001600022C01D301201CE09E
:1017E00032002900C9B22000FFF764FF012801D1AF
:1017F000012012E0A3496003085850F0004050F067
:10180000407050F47F00EDB265F3092066F30700E5
:101810006203885064030859002070BD10B59A48CF
:1018200001F01FFA45F62002130098490C00012B25
:101830000EDB14F01F00C318BFF34F8F94480460F1
:101840002034203B012BF9DABFF34F8FBFF36F8FAA
:10185000904C2000FFF78AFE01208F49087010BDD0
:1018600010B596B040F26114002201212000FFF76C
:101870007BFF2000FFF774FF092300220121C0B283
:10188000FFF72EFF2000FFF76BFF00220121C0B2FF
:10189000FFF79EFF4FF4CD70ADF800000320ADF8C8
:1018A000020001208DF8040000227C49684601F006
:1018B000EFF85021002202AC200000F06DFE002065
:1018C000029000208DF80C0001208DF80D00002002
:1018D0008DF80E0000208DF8100003208DF84C00CC
:1018E0000120149000208DF8540000208DF8550040
:1018F000654C02A9200001F0E7F8200001F0A4F9EE
:10190000200001F0A8F9664801F0B3F916B010BD47
:1019100010B58EB001248A20009089234FF4C8723C
:1019200000210AA801F06CFC0AA801F019FD0028AA
:1019300017D168465B492822FFF728FE5A480178EC
:10194000491CBC2211FB02F1ADF812100078401CBA
:10195000782110FB01F0ADF81600684601F030FD6B
:1019600004002000C0B20EB010BD2DE9F8430020E5
:10197000BFF34F8FBFF36F8F4C4C206830F40030B3
:1019800020604B4E00203060BFF34F8FBFF36F8F4E
:10199000484F00203860BFF34F8F206830F480300C
:1019A0002060BFF34F8FDFF81081D8F80010C1F32B
:1019B0004E32C1F3C90343F6E07515EA421050EA0E
:1019C0008370DFF8F8C0CCF800001800431E002830
:1019D000F1D11000421E0028EBD1BFF34F8FBFF3AF
:1019E0006F8F782036490880BC2036490880FFF781
:1019F0008FFF81464846C0B2002801D1FFF730FF73
:101A00002068800311D4BFF34F8FBFF36F8F002086
:101A10003060BFF34F8FBFF36F8F206850F40030FA
:101A20002060BFF34F8FBFF36F8F2068C00321D4B6
:101A300000203860BFF34F8FD8F80010C1F34E324A
:101A4000C1F3C90315EA421050EA83701E4E30609C
:101A50001800431E0028F5D11000421E0028EFD1C7
:101A6000BFF34F8F206850F480302060BFF34F8F5A
:101A7000BFF36F8F4846C0B2BDE8F283000000009C
:101A8000F072281000000440801D58402460022895
:101A90005CEF00E078B70828561409281D182810B4
:101AA000001E5840DC7028105714092814ED00E07F
:101AB00050EF00E084ED00E080ED00E074EF00E026
:101AC000F06B0028F26B002860EF00E0022801D3E1
:101AD000012010E00B00DBB2042B01DB01200AE047
:101AE000DFF8AC3803EB8000C9B2405C824201D31E
:101AF000012000E000207047F8B504000F00150039
:101B00001E00022C01D301202AE02A003900C9B2AC
:101B10002000FFF7DBFF012801D1012020E006981B
:101B20003900C9B202291ED1B6F5803F19D220284A
:101B300017D24FF4C052DFF85C1863030B4403EB79
:101B4000850313441F6866F317271F60640321444D
:101B500001EB850111440A6860F3C7020A600020A6
:101B6000F2BD0120FCE7FFB2032F1FD1B6F1807F49
:101B70001AD2202818D24FF4E052DFF81818630365
:101B80000B4403EB850313441F6807F0FF0757EA74
:101B900006271F606403214401EB850111440A6894
:101BA00060F3C7020A60DAE70120D9E70120D7E72E
:101BB00000B20012C0B27047F8B505000E00170061
:101BC000280000B2FFF7F4FF04002000C0B2022892
:101BD00001D3012024E03A003100C9B22000C0B294
:101BE000FFF774FF012801D1012019E0DFF8A417E5
:101BF0002000C0B2400308442A00D2B200EB8200A9
:101C0000D0F8000CF6B266F3092067F30700E4B2DF
:101C100064032144EDB201EB8501C1F8000C002002
:101C2000F2BD70B504000D001600022C01D3012096
:101C30001DE032002900C9B22000FFF747FF01284C
:101C400001D1012013E0DFF84C176003085850F071
:101C5000004050F0407050F47F00EDB265F3092071
:101C600066F307006203885064030859002070BDC2
:101C7000D0F840037047D0F80803C005C00D704786
:101C800010F541710A6852F480320A6010F5417112
:101C90000A6832F480320A60D0F804037047C0F852
:101CA00040127047D0F80802C005C00D7047D0F848
:101CB0000802C0F3C030704738B505002800FFF7B0
:101CC000F1FF04002800FFF7F2FF0419002C01D1F6
:101CD000012000E00020C0B232BDC0F8C81F70472C
:101CE000D0F8C80F7047C0F8C01FD0F8C00F7047B9
:101CF000C0F8881F7047D0F8880F7047C0F8801F61
:101D0000D0F8800F7047016851F0004101607047C2
:101D10002DE9F84F0400012500200020DFF83808E5
:101D20002100C9B250F82160D6F80403000601D1A1
:101D3000042700E001273000FFF7D2FF3900C9B2C5
:101D4000084253D03800C0B2012835D13000FFF727
:101D500092FF80465FF0000901E019F10109404659
:101D6000C0B2814522DADFF8F4A72000C0B21AF829
:101D70000000411C2200D2B20AF80210DFF8E0177E
:101D80002200D2B2120101EB020BC0B2009030006F
:101D9000FFF76EFF00990BF801002000C0B21AF89F
:101DA00000001028D9DB3000FFF76AFF0120DFF8C0
:101DB000B417E4B2085513E03000FFF759FFDFF81D
:101DC000A0172200D2B2120188540120DFF88C172C
:101DD0002200D2B288540120DFF88817E4B20855F7
:101DE000FFB239003000FFF77EFF0AE03000FFF756
:101DF00082FF800505D54FF400713000FFF77EFFAC
:101E000000252800C0B2BDE8F28F38B504001500E7
:101E1000C9B200290ED0102919D0202924D0302988
:101E20002FD031293AD0402945D0502950D06029AF
:101E30005BD067E0DFF83007A0600120207311203D
:101E400060734FF48C70E0811220208260E0DFF834
:101E50001C07A060012020731120607340F21D1048
:101E6000E0816B20208253E0DFF80407A0600120AE
:101E70002073112060734FF48E70E0816A202082FD
:101E800046E0DFF8F006A0600220207311206073A6
:101E900040F21B10E0816920208239E0DFF8D8068B
:101EA000A060012020731120607340F21B10E081BC
:101EB000692020822CE0DFF8C406A0600120207396
:101EC000132060734FF48D70E081682020821FE042
:101ED000DFF8AC06A060012020731120607340F28F
:101EE0001F10E0816D20208212E0DFF89806A060CC
:101EF00001202073112060734FF48F70E0816C20FB
:101F0000208205E0DE22DFF88016002001F05AFF73
:101F1000EDB2002D0ED0102D19D0202D24D0302D53
:101F20002FD0312D3AD0402D45D0502D50D0602D9E
:101F30005BD067E0DFF830062060002020711120C0
:101F400060714FF48C70E0811220208261E0DFF834
:101F50001C062060002020711120607140F21D10CD
:101F6000E0816B20208254E0DFF80406206000202E
:101F70002071112060714FF48E70E0816A20208200
:101F800047E0DFF8F005206001202071112060712A
:101F900040F21B10E081692020823AE0DFF8D8058A
:101FA0002060002020711120607140F21B10E08140
:101FB000692020822DE0DFF8C40520600020207118
:101FC000132060714FF48D70E0816820208220E042
:101FD000DFF8AC052060002020711120607140F214
:101FE0001F10E0816D20208213E0DFF8980520604B
:101FF00000202071112060714FF48F70E0816C20FF
:10200000208206E04FF49172DFF87C15002001F089
:10201000D9FE31BD38B50400DFF83C55C9B2200007
:10202000C0B255F82000FFF73AFE2000C0B255F8C4
:102030002000FFF741FE0028F7D031BD38B504007D
:102040000D0005E029782000C0B2FFF7E3FF6D1C0A
:1020500028780028F6D131BD30B40022DFF80435ED
:102060000200D2B29A5C002A2CD0DFF8F4240400DB
:10207000E4B22401145D0C70DFF8E0440100C9B241
:10208000615C491E0500EDB261550100C9B2615C99
:10209000002912D000210300DBB2E35C99420FDA81
:1020A0000300DBB21B0113440500EDB22D01154402
:1020B0000D446D785D54491CEDE70021C0B2195400
:1020C000012000E00020C0B230BC704770B50500B0
:1020D0000C00DFF884642800C0B256F82000FFF737
:1020E0000AFE4008400001002800C0B256F8200057
:1020F000FFF7FEFD2800C0B256F82000FFF7FBFDF9
:1021000030F0020001002800C0B256F82000FFF7AE
:10211000EFFD2800C0B256F82000FFF7ECFD30F0CC
:10212000200001002800C0B256F82000FFF7E0FDB3
:102130002800C0B256F82000FFF7DDFD30F0400067
:1021400001002800C0B256F82000FFF7D1FD28009A
:10215000C0B256F82000FFF7CEFD30F010000100AD
:102160002800C0B256F82000FFF7C2FD2800C0B218
:1021700056F82000FFF7BFFD30F480700100280002
:10218000C0B256F82000FFF7B3FD2800C0B256F8E1
:102190002000FFF7B0FD30F4806001002800C0B2DD
:1021A00056F82000FFF7A4FD002C0ED02800C0B286
:1021B00056F82000FFF794FD50F400700100EDB2D6
:1021C00056F82500FFF794FD0DE02800C0B256F840
:1021D0002000FFF785FD30F400700100EDB256F8E5
:1021E0002500FFF785FD70BD70B505000C00DFF818
:1021F00068632800C0B256F82000FFF771FD30F088
:10220000080001002800C0B256F82000FFF765FD65
:102210002800C0B256F82000FFF762FD30F0200021
:1022200001002800C0B256F82000FFF756FD280034
:10223000C0B256F82000FFF753FD30F48070010063
:102240002800C0B256F82000FFF747FD2800C0B2B2
:1022500056F82000FFF744FD30F40070010028001C
:10226000C0B256F82000FFF738FD2800C0B256F87B
:102270002000FFF735FD30F4006001002800C0B2F7
:1022800056F82000FFF729FD2800C0B256F82000BC
:10229000D0F8040300061FD1002C5BD12800C0B287
:1022A00056F82000FFF71CFD400840000100280000
:1022B000C0B256F82000FFF710FD2800C0B256F853
:1022C0002000FFF70DFD30F004000100EDB256F8DC
:1022D0002500FFF702FD70BD002C1DD02800C0B204
:1022E00056F82000FFF7FCFC30F004000100280045
:1022F000C0B256F82000FFF7F0FC2800C0B256F834
:102300002000FFF7EDFC50F001000100EDB256F89F
:102310002500FFF7E2FCDEE72800C0B256F82000F7
:10232000FFF7DEFC30F0040001002800C0B256F8D0
:102330002000FFF7D2FC2800C0B256F82000FFF7BB
:10234000CFFC400840000100EDB256F82500FFF731
:10235000C4FCC0E72800C0B256F82000FFF7C0FC5C
:102360004008400001002800C0B256F82000FFF7E6
:10237000B4FC2800C0B256F82000FFF7B1FC50F0C2
:1023800004000100EDB256F82500FFF7A6FCA2E715
:10239000F0722810000004402DE9F0412DED028B71
:1023A000A8B005000E00170028003900C9B20909BD
:1023B000C0B2884201D1012000E000201C00DFF8FB
:1023C000C88140F285224146C0B201F0FBFC2800E2
:1023D0002100C9B20909C0B2884201D1012000E040
:1023E000002040F286224146C0B201F0EBFC02A878
:1023F0001421FFF779F8342100220DF168084046D6
:1024000000F0CAF84C2100220DF11C08404600F0F3
:10241000C3F8082080B206FB00F65C48B0FBF6F873
:102420005A4806FB180000EE100AB8EE400B01EE09
:10243000106AB8EE411B80EE010BBFEEED0B10EE03
:10244000100B08EE100A2200D2B23900C9B202A85D
:10245000FFF7DBFC08201B909DF80D008DF8700045
:102460001AAA9DF80C10029801F069FD06201B9035
:102470009DF815008DF870001AAA9DF814100498A4
:1024800001F05DFD002007900820089008200990C9
:1024900002200B9000200C9000201290002014903D
:1024A0002D4C2800C0B254F8200001F0C9FE384974
:1024B0002A00D2B2382042430A4407A92800C0B2F9
:1024C00054F8200001F07AFD2800C0B254F8200032
:1024D000FFF719FC2A00D2B20321BDF91600FFF75D
:1024E0006BFBBDF91600FFF763FB8DED008AB8F1B9
:1024F000010843462A00D2B20321C0B2FFF7FCFA1A
:10250000BDF91600FFF754FB2A00D2B20321C0B276
:10251000FFF787FBBDF91800ADF800000320ADF808
:10252000020001208DF8040007221A482900C9B2D0
:1025300050F82110684600F0ABFA00212800C0B224
:10254000FFF752FE00212800C0B2FFF7BFFD28B000
:10255000BDEC028BBDE8F08118070828EC130928B0
:1025600010130928F41309280000314000023140FB
:10257000000531408008314080063140000731407D
:102580000001314080013140746F281000B4C40450
:10259000980F0928FC06082862F30F2262F31F42F5
:1025A000401810F0030308D0C91A1FD3DB0748BF37
:1025B00000F8012D28BF20F8022D130030B4144676
:1025C0001546103928BF20E93C00FAD8490728BF32
:1025D00020E90C0048BF40F8042D890028BF20F8EE
:1025E000022D48BF00F8012D30BC7047C91818BF34
:1025F00000F8012DCB0728BF00F8012D704700001F
:102600000CB430B583B00A4606A9029104460025F1
:102610000194009502AB01A9084878441E3001F0EE
:102620005AFE019A157000284EBF04460198041BFB
:10263000204603B030BC5DF80CFB00BFD7EFFFFFB6
:1026400000B500BF130096469446103928BFA0E895
:102650000C50FAD85FEA417C28BF0CC048BF40F854
:10266000042BC90728BF20F8022B48BF00F8012B14
:1026700000BD000010B5002042490860BFF34F8F35
:1026800041480168C1F34E32C1F3C90343F6E0701B
:1026900010EA421050EA83703C4C20601800431E40
:1026A0000028F3D11000421E0028EDD1BFF34F8F58
:1026B000BFF36F8FBFF34F8FBFF36F8F002034498D
:1026C0000860BFF34F8FBFF36F8F00F001F810BDAC
:1026D00038B586B068462F491822FEF757FF68467E
:1026E00002F0F6FEC0B200280DD02B4C18222B4968
:1026F000200003F0B9F90020E0754E202849086059
:10270000002003F0E9F9274D280003F083F9C0B257
:1027100000280DD0204C18222049200003F0A4F9F5
:102720000020E07550201E490860002003F0D4F915
:102730001D49286808600A681C4882181C48B2FBBA
:10274000F0F01C4A10601C48096801F2E7314FF4B0
:102750007A72B1FBF2F101600068C00317490860AA
:1027600007B030BD80B503F00BFA15490A6852F482
:1027700070020A60BFF34F8FBFF36F8F03F004FA4C
:1027800001BD000084ED00E080ED00E074EF00E0AA
:1027900050EF00E06072281098130928F86C281098
:1027A000FC13092814140928181409283F420F00A3
:1027B00040420F00201409281C1409282414092859
:1027C00088ED00E0022801D301200FE00B00DBB20E
:1027D000042B01DB012009E07D4B03EB8000C9B233
:1027E000405C824201D3012000E000207047F8B530
:1027F00006000F0015001C00022E01D301201CE072
:102800002A003900C9B23000FFF7DCFF012801D1EE
:10281000012012E03800C0B2002811D1B4F5807F49
:102820000CD26C487603304400EB850010F58050E4
:10283000016864F30F2101600020F2BD0120FCE774
:10284000FFB2012F10D1B4F5803F0BD2614876035F
:10285000304400EB850010F5A050016864F31721A7
:102860000160E9E70120E8E70120E6E700B2001295
:10287000C0B27047F8B505000E001700280000B27E
:10288000FFF7F4FF04002000C0B2022801D30120AA
:1028900023E03A003100C9B22000C0B2FFF792FF36
:1028A000012801D1012018E04A492000C0B24003AC
:1028B00008442A00D2B200EB8200D0F8000CF6B235
:1028C00066F3092067F30700E4B264032144EDB224
:1028D00001EB8501C1F8000C0020F2BD70B50400C9
:1028E0000D001600022C01D301201CE0320029004B
:1028F000C9B22000FFF766FF012801D1012012E0D4
:1029000034496003085850F0004050F0407050F4D3
:102910007F00EDB265F3092066F30700620388507B
:1029200064030859002070BD38B594B050210022CE
:102930006C462000FFF730FE294C00220121B4F93B
:102940000000FFF797FFB4F90000FFF78FFF09239E
:1029500000220121C0B2FFF74AFFB4F90000FFF7DF
:1029600085FF00220121C0B2FFF7B8FF5FF0FF3002
:10297000009000208DF8040000208DF80500002054
:102980008DF8060000208DF8080003208DF8440023
:102990000120129001208DF807000F4C0F4D694661
:1029A0002078C001284400F08FF82078C001284426
:1029B00000F04AF900212078C001284400F049F9CC
:1029C0002078C001284400F054F915B030BD000053
:1029D000F072281000000440370708280000594012
:1029E00034070828010009B2002908D4012210F098
:1029F0001F018A401B4900B2400941F8202070475E
:102A0000010009B2002908D4012210F01F018A40F8
:102A1000154900B2400941F820207047020012B267
:102A2000002A04D44901114A00B2115407E04901B7
:102A30000F4A00B210F00F00104400F8041C704759
:102A4000002800D162B60B480168491C016070473C
:102A500072B608490868002802D00868401E08605D
:102A60000868704700E100E080E200E000E400E078
:102A700018ED00E02C14092880B5FFF7E9FF03F0FA
:102A800087F801BD80B5C9B200B2FFF7C7FF01BD2D
:102A900070B504000D001600200003F089F829002D
:102AA000B4F9000003F0C3F83100C9B2B4F9020070
:102AB000FFF7E8FFB4F90200FFF7A2FFB4F9020044
:102AC000FFF790FF70BD000010B4012291F84C3068
:102AD000052B03D291F84D30052B01D31000A7E050
:102AE000002800F0A480002900F0A180514A12685B
:102AF0004B7963F392428B7913F0030363F3114232
:102B00000B7A13F0070363F31A62CB7963F39E72B7
:102B10000B7D63F3000291F8243063F341020260FD
:102B20000A7910F130031C6862F307041C604A79CB
:102B3000012A0BD18A79002A02D10022826007E0A3
:102B40008A79012A04D10A68826001E00122826048
:102B5000CA6802610A694261CA6982610A6AC2611D
:102B60000A680262344A12680B7E03F0FF03120AFD
:102B700012021A4391F8303003F0FF0363F3174257
:102B800091F8403003F0FF0363F31F6291F848307F
:102B900003F0FF0363F30F224264284A126891F89E
:102BA000383003F0FF03120A12021A4391F828305A
:102BB00003F0FF0363F30F228264214A12688B7DC6
:102BC00013F00303920892001A4391F8253013F092
:102BD000030363F38B2291F82C3013F0030363F3A8
:102BE000051291F8343013F0030363F3092291F8CE
:102BF0003C3013F0030363F3871291F8443013F071
:102C0000030363F38302C2640E4A126891F84C30E6
:102C100013F00703D208D2001A4391F84D3013F095
:102C2000070363F306124265497D816700221000A5
:102C300010BC7047487328104C732810507328102C
:102C40005473281058732810016851F00041016036
:102C50007047816070477830016851F00101016070
:102C6000704710F170010A6852F001020A60006FAB
:102C700070474030016851F010010160704700005A
:102C80001CB50400002C01D0012000E000204122EE
:102C9000DFF8A414C0B201F095F8DFF8A004012118
:102CA0002278D21010EBC212237813F0070311FA26
:102CB00003F313602279D21010EBC210227912F0C4
:102CC000070211FA02F20260E06800900098421ECA
:102CD00000920028FAD1DFF868242079C01012EBA6
:102CE000C010237913F0070311FA03F30360E068BF
:102CF00000900098431E00930028FAD12078C0105D
:102D000012EBC012207810F0070081401160E068DB
:102D100000900098411E00910028FAD113BD1CB507
:102D20000400002C01D0012000E000205522DFF833
:102D30000814C0B201F046F8DFF80404012122793A
:102D4000D21010EBC212237913F0070311FA03F328
:102D500013602278D21010EBC210227812F0070212
:102D600011FA02F20260E06800900098421E0092A0
:102D70000028FAD1DFF8C4232078C01012EBC0106D
:102D8000237813F0070311FA03F30360E06800905F
:102D90000098431E00930028FAD12079C01012EB4E
:102DA000C012207910F0070081401160E0680090A7
:102DB0000098411E00910028FAD113BD38B50400D7
:102DC0000D00002C01D0012000E000206A22DFF875
:102DD0006813C0B200F0F6FFDFF864130122207818
:102DE000C01011EBC010237813F0070312FA03F39D
:102DF0000360EDB2002D0CD02079C010DFF83C3319
:102E000013EBC013207910F0070012FA00F01860DD
:102E100009E02079C01011EBC010237913F00703EB
:102E200012FA03F30360E06800900098431E0093D9
:102E30000028FAD1DFF804332078C01013EBC0105B
:102E4000257815F0070512FA05F50560E068009091
:102E50000098451E00950028FAD12078C01011EB8B
:102E6000C011207810F0070012FA00F008602079F5
:102E7000C01013EBC013207910F0070082401A60D5
:102E800031BD2DE9FC410400002C01D0012000E0FF
:102E900000208622DFF8A012C0B200F093FF0025C8
:102EA000DFF8EC6201272078C01016EBC010217803
:102EB00011F0070117FA01F10160DFF88082207933
:102EC000C01018EBC010217911F0070117FA01F1B9
:102ED0000160002200216068C0B202F00FFFE068CC
:102EE00000900098411E00910028FAD12078C0106F
:102EF00018EBC018207810F0070017FA00F0C8F897
:102F00000000E06800900098411E00910028FAD16E
:102F10006068C0B202F0E1FE002800D001252078F0
:102F2000C01016EBC016207810F0070087403760FD
:102F3000032201216068C0B202F0E0FEE068009068
:102F40000098411E00910028FAD12800C0B2BDE8C7
:102F5000F6817CB504000D00002C01D0012000E0BA
:102F60000020A822DFF8D011C0B200F02BFF802192
:102F70000800C0B200284ED02800C0B208420CD0D1
:102F80000120227912F0070290402279D210DFF856
:102F9000AC3113EBC21318600BE00120227912F060
:102FA000070290402279D210DFF8E43113EBC2130C
:102FB0001860C9B24908E068400800900098421EB5
:102FC00000920028FAD10122207810F0070012FAAE
:102FD00000F02378DB10DFF8646116EBC316306075
:102FE000E06800900098431E00930028FAD12078F2
:102FF00010F0070082402078C010DFF8943113EB06
:10300000C0131A60E068400800900098421E0092C9
:103010000028FAD1ACE72000FFF733FF012801D1E7
:10302000002000E00120C0B276BD2DE9FC4704007D
:103030000D00002C01D0012000E00020C222DFF8AA
:10304000F810C0B200F0BEFE00260827DFF8F080BE
:103050005FF001092078C01018EBC010217811F042
:10306000070119FA01F10160E06800900098411E23
:1030700000910028FAD1DFF8C4A02079C0101AEB23
:10308000C010217911F0070119FA01F10160002245
:1030900000216068C0B202F031FE27E02078C01045
:1030A00018EBC010217811F0070119FA01F1016045
:1030B000E06800900098411E00910028FAD1207825
:1030C000C0101AEBC010217811F0070119FA01F1B4
:1030D0000160E06800900098411E00910028FAD13C
:1030E0006068C0B202F0F9FD50EA46063800471E9B
:1030F000C0B20028D2D12078C01018EBC0182078B8
:1031000010F0070019FA00F9C8F800900322012115
:103110006068C0B202F0F2FDE06800900098411EC5
:1031200000910028FAD12900C9B22000FFF746FE1D
:103130003000C0B2BDE8F687886E28100800314024
:103140000400314070B504000D001600002C01D0C1
:10315000012000E0002040F28D224749C0B200F07B
:1031600031FE2000FFF78CFD217A4900C9B2200012
:10317000FFF7EFFE2900C9B22000FFF7EAFE310099
:10318000C9B22000FFF7E5FE2000FFF7C8FD70BDC3
:103190000400314038B504000D00002C01D001209E
:1031A00000E0002040F29F223349C0B200F00AFE46
:1031B00000202000FFF764FD217A4900C9B22000F9
:1031C000FFF7C7FE2900C9B22000FFF7C2FE2000AA
:1031D000FFF7A5FD2000FFF753FD217A490051F0CC
:1031E0000101C9B22000FFF7B4FE01212000FFF762
:1031F0001CFF05002000FFF792FD2800C0B232BD81
:103200002DE9F843040088461700002C01D0012066
:1032100000E00020089D1E00DFF85C9040F2BA221A
:103220004946C0B200F0CEFD30002900C0B2C9B29C
:10323000884201D0012000E0002040F2BB22494634
:10324000C0B200F0BFFD3000C0B220602800C0B2A4
:10325000606084F80880E7600323012201213000C8
:10326000C0B202F072FD0323012201212800C0B286
:1032700002F06BFDBDE8F183886E281070B5040084
:103280000D00DFF834682A0092B2120AD2B221008F
:10329000C9B23000FFF756FF2A00D2B2F021300049
:1032A000FFF750FF70BD2DE9F04704000D00012627
:1032B00000275FF000085FF00A09484640B2002886
:1032C00036D0484640B2052190FBF1F201FB1200D6
:1032D000002810D1DFF8E0A72A0092B2120AD2B279
:1032E0002100C9B25046FFF72DFF2A00D2B2F021CB
:1032F0005046FFF727FFDFF8C0A72100C9B25046AC
:10330000FFF748FF0700F0215046FFF743FF8046D4
:10331000280080B23900C9B24246D2B252EA012234
:10332000904202D10020060002E0B9F10109C4E791
:10333000300040B2BDE8F08770B50400DFF8786770
:103340002100C9B23000FFF725FF0500F021300051
:10335000FFF720FFEDB2C0B250EA052080B270BD89
:10336000F8B50400002500260127DFF84C075C2192
:103370000172E168C16021680160616841600020FC
:10338000FFF7DAFF0600300041F2243180B28842B4
:103390000BD0300041F2113180B2884205D03000AC
:1033A00041F2133180B2884202D10020070004E0CC
:1033B0006D1C2800C0B21528E1DB3800C0B2F2BD98
:1033C0002DE9F14F8AB05FF0000A00240020ADF82B
:1033D000200000250020ADF806000020ADF81E00FA
:1033E0000020ADF81C0000265FF0000800270A98B6
:1033F000C088ADF808000A984089ADF80A000A981C
:10340000C089ADF80C000A98408AADF80E000A9801
:10341000C08AADF810000A98408BADF812000A98E7
:10342000C08BADF814000A98408CADF816000A98CD
:10343000C08CADF81A004BF6EF61FE20FFF71EFFBF
:1034400003210C20FFF71AFF0020FFF775FF07008C
:1034500041F224393800494680B288420BD0380006
:1034600041F2113180B2884205D0380041F2133167
:1034700080B2884200D109E018F101084046C0B28C
:10348000142802DB0120060000E0DDE73000C0B2B6
:10349000002840F00C83BDF81000792807DABDF849
:1034A00010008000ADF806005AF0020A15E0BDF8E1
:1034B0001000F12807DABDF810004000ADF8060052
:1034C0005AF0010A09E0BDF8100040F2E11188420B
:1034D00003DABDF81000ADF80600BDF80E00BD28F7
:1034E00006DABDF80E00800005005AF0080A15E063
:1034F000BDF80E0040F27911884206DABDF80E00E0
:10350000400005005AF0040A08E0BDF80E0040F241
:10351000F121884202DABDF80E000500DFF89CB503
:1035200040F24E31280080B2091ACBF80010380062
:10353000494680B288427AD148F288310720FFF7A5
:10354000B2FE80190600DFF87815BDF81020921C35
:103550002B009BB2DBF80000C3185A43121D91FBED
:10356000F2F00400200080B240F2F511884202DB44
:103570004FF4FA7004002000BDF80C1080B28842AD
:1035800001D2ADF80C40DFF83C15DFF83405BDF88A
:103590000C2090FBF2F2121F2B009BB2DBF8000014
:1035A000C31892FBF3F2BDF81000121A0A6047F636
:1035B00021600A68824202DA0A68022A0EDA0A6880
:1035C000022A02DA0220086008E00A68824203DB6D
:1035D00047F62060086001E008680860DFF8E00452
:1035E000BDF80C2090FBF2F2121F0968BDF8100024
:1035F000411892FBF1F1280080B2091ACBF80010B3
:10360000DBF800003D2803DA3D20CBF8000081E024
:10361000DBF80000B0F5806F04DB40F2FF30CBF840
:10362000000077E0DBF80000CBF8000072E0DFF884
:103630009014BDF81020121D2B009BB2DBF8000087
:10364000C3185A43121D91FBF2F00400200080B20F
:1036500040F2F511884202DB4FF4FA7004002000BA
:10366000BDF80C1080B2884201D2ADF80C40DFF8F2
:103670005414DFF84C04BDF80C2090FBF2F2121F3A
:103680002B009BB2DBF80000C31892FBF3F2BDF8ED
:103690001000121A0A6040F6B9300A68824202DA53
:1036A0000A68042A0EDA0A68042A02DA042008608A
:1036B00008E00A68824203DB40F6B830086001E0A7
:1036C00008680860DFF8F803BDF80C2090FBF2F200
:1036D000121F0968BDF81000411892FBF1F1280093
:1036E00080B2091ACBF80010DBF800002B2803DAAF
:1036F0002B20CBF800000DE0DBF80000B0F5806F68
:1037000004DB40F2FF30CBF8000003E0DBF8000000
:10371000CBF80000DFF8AC030168BDF810004118D9
:10372000891EBDF80A00814208DADFF898030168B3
:10373000BDF810004118881EADF80A00280080B2BC
:10374000D0F53C70022190FBF1F0BDF9121002009F
:1037500012B2D14203DA010009B2494209E0010084
:10376000BDF9122009B2914201DA010001E0BDF970
:103770001210ADF81210401CBDF91210411AADF82C
:103780001E10BDF80610D1F5F071022291FBF2F186
:10379000BDF914200B001BB2DA4203DA080000B2B4
:1037A000404209E00800BDF9142000B2904201DA5D
:1037B000080001E0BDF91400ADF81400091DADF8D2
:1037C0002010BDF92010BDF914004118ADF81C10EF
:1037D00001211B20FFF767FD80198DF804009DF87B
:1037E00004000090BDF81E100120FFF75CFD009959
:1037F00040188DF804009DF804000090BDF81C10DE
:103800000220FFF750FD009940188DF804009DF844
:1038100004000090BDF806100320FFF744FD009956
:1038200040188DF804009DF804000090290089B22A
:103830000420FFF738FD009940188DF804009DF82A
:1038400004000090DBF80000010089B20520FFF7BA
:103850002AFD009940188DF804009DF804B099489D
:103860000068010089B20620FFF71DFD10EB0B0B6D
:103870008DF804B09DF804B04FF4B2710A20FFF740
:1038800012FD10EB0B0B8DF804B09DF804B040F264
:10389000BB110820FFF707FD10EB0B0B8DF804B0F0
:1038A0009DF804B040F2D9110920FFF7FCFC10EBA1
:1038B0000B0BBDF80800002807D1BDF80A100B203B
:1038C000FFF7F1FC10EB0B0083465AF44C7189B200
:1038D0000D20FFF7E8FC10EB0B008DF804009DF8BD
:1038E000046027213120FFF7DEFC86198DF8046083
:1038F0009DF804601A213220FFF7D5FC86198DF857
:1039000004609DF8046005213320FFF7CCFC861984
:10391000BDF816103520FFF7C6FC80198DF804009D
:10392000380080B2484529D1504680B2042801DBD6
:10393000012100E000219DF80460C9B2090189B2AB
:103940007220FFF7B0FC86198DF804609DF8049092
:1039500040F201110F20FFF7A6FC10EB09098121AD
:103960004720FFF7A0FC83461BEB090BEC21482006
:10397000FFF799FC060016EB0B0615E09DF8049086
:1039800011210F20FFF78FFC10EB0909812147203F
:10399000FFF789FC83461BEB090BE7214820FFF763
:1039A00082FC060016EB0B064FF462710720FFF74E
:1039B0007AFC80198DF804009DF804B040F20331C0
:1039C0001C20FFF770FC10EB0B0B03212C20FFF7E2
:1039D0006AFC814619EB0B09BDF80800002807D1E5
:1039E0000021AF20FFF75FFC060016EB09064DE053
:1039F000BDF80810A520FFF756FC060016EB0906D7
:103A00000221A620FFF74FFC83461BEB060B022189
:103A1000A820FFF748FC10EB0B008DF80400BDF860
:103A20000E10BDF810004143042091FBF0F0B0F5FA
:103A3000803F08DABDF80E10BDF8100041430420A5
:103A400091FBF0F101E04FF6FF719DF8046089B23F
:103A5000B020FFF728FC86198DF804609DF80490CB
:103A60001421AE20FFF71FFC10EB090940F20111F1
:103A7000AF20FFF718FC83461BEB090BBDF80A10BB
:103A8000AD20FFF710FC060016EB0B06BDF8080092
:103A90000D490860BDF80A000C490860BDF8100027
:103AA0000B4908604DF6AD61FE20FFF7E7FB3000E3
:103AB000C0B20BB0BDE8F08FDC130928341409281C
:103AC000C0FC9B0130140928381409283C1409282B
:103AD0004014092882B000200190002000900020AE
:103AE000019009E00098401C00900098B0F5005F3C
:103AF000F8D30198401C01900198B0F5805F02D284
:103B000000200090F1E702B070472DE9F043ADF5D9
:103B1000137D0700884616001C000020ADF8020047
:103B20000020ADF80000002002900020ADF8040055
:103B30000020ADF80600404602F04EF90290DFF892
:103B4000C0522888002801D028698047DFF8B402D5
:103B50000078002800F032812888002800F01081C9
:103B6000BDF90600411CADF806103A00010089B20B
:103B70000020EB6898474746404602F02DF9029036
:103B80006888A97990FBF1F0ADF804003800471C73
:103B900000780028FAD10020ADF800000EE07F1E6A
:103BA00038782F2802D038785C2804D1BDF800007E
:103BB000401CADF800000298401E0290BDF80000C5
:103BC000022802DA02980028E9D50298002805D4D4
:103BD0007A1C8D4953A8FEF713FD0EE0BDF80000D6
:103BE000002805D13A00894953A8FEF709FD04E0F1
:103BF0003A00854953A8FEF703FD0020ADF8020006
:103C000042E0BDF80010BDF80020BDF8023053AF0F
:103C10009BB2BDF90400434313FA82F0385C43AA17
:103C200089B25054BDF80000401CADF80000BDF84A
:103C3000000080B2BDF9041088420EDA53A802F0E9
:103C4000CBF8BDF80020BDF802309BB2BDF90410DE
:103C50004B4313FA82F18842D3D2002043A9BDF826
:103C600000208854BDF90600411CADF8061043AA97
:103C7000E97911FB00F189B20020EB689847BDF8A3
:103C80000200401CADF80200BDF8027053A802F01B
:103C9000A3F8BDF90410B0FBF1F0401CBFB287429D
:103CA00003D20020ADF80000C1E73200584953A804
:103CB000FEF7A6FCBDF90600411CADF8061053AA9C
:103CC000E97911FB00F189B20020EB689847002CDC
:103CD00074D00020ADF8020041E0BDF80010BDF83E
:103CE0000020BDF802309BB2BDF90400434313FA33
:103CF00082F0205C43AA89B25054BDF80000401CF9
:103D0000ADF80000BDF8000080B2BDF90410884293
:103D10000EDA200002F060F8BDF80020BDF8023095
:103D20009BB2BDF904104B4313FA82F18842D4D2FE
:103D3000002043A9BDF800208854BDF90600411CAD
:103D4000ADF8061043AAE97911FB00F189B2002011
:103D5000EB689847BDF80200401CADF80200BDF8C2
:103D60000260200002F038F8BDF90410B0FBF1F059
:103D7000401CB6B2864221D20020ADF80000C1E757
:103D80004FF4807100220DF10C094846FEF704FC47
:103D90003800A9688847002C07D0009433004246B9
:103DA0001C4903A8FEF72CFC05E0330042461A49E3
:103DB00003A8FEF725FC03A8A96888470DF5137D25
:103DC000BDE8F08338B50C001500C0B2002803D15F
:103DD00012480078002800D131BD11490878002828
:103DE00000D0FEE70878401C0870FEF745FE00236F
:103DF0002A0021000B48FFF788FEFFF76BFEF6E76D
:103E0000C81309284F140928CC722810A072281052
:103E1000D8722810F47128107872281036070828F4
:103E200050140928B072281030B4614B1818C0091A
:103E3000604C14EB001404290DD223681F25C80020
:103E40008540AB43D2B212F01F02C90012FA01F151
:103E5000194321600CE0091F63681F25C8008540D5
:103E6000AB43D2B212F01F02C9008A401A4362600B
:103E700030BC7047002A04D1012212FA01F14160DE
:103E800003E0012212FA01F18160704710B4890049
:103E9000436C0F248C40A34312F00F0212FA01F17D
:103EA0001943416410BC704710B4836C01248C40EA
:103EB000A34312F0010212FA01F11943816410BC0C
:103EC000704710B4C36C01248C40A34312F001026C
:103ED00012FA01F11943C16410BC704710B44900D3
:103EE0001031C36C03248C40A34312F0030212FA76
:103EF00001F11943C16410BC70474269012212FAF2
:103F000001F141614069704710B4836901248C401C
:103F1000A34312F0010212FA01F11943816110BCAE
:103F2000704710B44900036C03248C40A34312F083
:103F3000030212FA01F11943016410BC7047F8B58D
:103F400005000E0014000027002D2ED0002C2CD0D0
:103F5000226831002800FFF78DFF227A3100280007
:103F6000FFF762FF626931002800FFF79DFFA26939
:103F700031002800FFF7A5FFE26931002800FFF7B4
:103F8000ADFF626831002800FFF780FFE268310072
:103F90002800FFF7C6FF31002800FFF7AEFF2269B7
:103FA00031002800FFF7B0FF00E0034F3800F2BDFA
:103FB0000000CFBF0000304001005A002DE9F44F4F
:103FC000DFF8D822DFF8D8321B68DFF8D84224683F
:103FD000DFF8D4522D68DFF8D4623668DFF8D0728B
:103FE0003F68DFF8D0C2DCF800C0DFF8CCE2DEF8D2
:103FF00000E0DFF8C882D8F80080DFF8C492D9F872
:104000000090DFF8C0A2DAF800A0002800F01581C7
:10401000002900F012810A68022A06D191F82620B0
:10402000002A02D15FF0000B03E0D1F804B0BBF12D
:10403000010B91F82420002A01D0012200E0002287
:1040400062F3104333F440436BF30303022262F341
:10405000196303600A7812F0030262F319640464BE
:1040600091F82520002A01D0012200E0002262F30D
:104070008615CA7E002A01D0012200E0002262F3E8
:104080008A254A7E002A01D0012200E0002262F344
:1040900008258A7E002A01D0012200E0002262F376
:1040A00049258A6B521E12F00F0262F313450A690A
:1040B000521E12F00702ED08ED0015434A6962F343
:1040C00004154A69520862F3451585640A7B002A83
:1040D00001D0012200E0002262F308260A7E002AB5
:1040E00001D0012200E0002262F349268A68521EB4
:1040F00012F01F02760976011643C0F800630A7FAA
:1041000002F0FF023F0A3F02174391F8202002F01D
:10411000FF0262F31747C0F8107391F82720002AB6
:1041200001D0012200E0002262F3082C0A69521E2D
:1041300012F007025FEADC0C5FEACC0C52EA0C0CCE
:104140004A6962F3041C4A69520862F3451CC0F8CC
:1041500044C00A7B002A01D0012200E0002262F361
:10416000082E8A68521E12F01F025FEA5E1E5FEA86
:104170004E1E52EA0E0E0A68012A01D1012200E009
:10418000002262F3104EC0F800E291F83C2002F0E9
:10419000FF025FEA18285FEA082852EA0808C0F818
:1041A000048391F82820002A01D0012200E0002297
:1041B00062F35969CA6A012A01D1012200E0002292
:1041C00062F318694A6B012A01D1012300E0002340
:1041D000009A63F3104991F8303003F0FF035FEA6F
:1041E00019295FEA092953EA0909C0F8509091F8A2
:1041F000443003F0FF035FEA1A2A5FEA0A2A53EA0F
:104200000A0AC0F804A28B6CC0F8883F096CC0F899
:10421000C81F002A10D0002050600020106000202D
:1042200090600020D060002010620020D06200204A
:104230001063DFF89400506300221000BDE8F28F95
:10424000DFF8881001605FF440110164002181648F
:1042500040F20711C0F800130022C0F80423002226
:10426000C0F8102300224264C0F800120021C0F8F8
:104270000412002101650021C0F8C81E0021C0F809
:10428000881E0021C0F8C81F0021C0F8881F002127
:10429000C0F8081F0021C0F8481F70470160AA003D
:1042A000187328101C7328102073281024732810EA
:1042B000287328102C73281030732810347328109A
:1042C000387328103C732810EFCDAB000F000003AB
:1042D00040F0200070472DE9F14FB0B092460491B4
:1042E0000DF142013A9A2B9199464A7000200AE05A
:1042F0001AF8011B0498309A90470028049000F0A7
:1043000034860D98401C0D909AF8000050B1252875
:10431000EED1002100220791089209910A920B9197
:104320000C9204E00D9800F022BE41F001011AF851
:10433000010F2028F9D023280CD02B2804D02D28B9
:1043400005D0302809D00BE041F00201EFE741F041
:104350000401ECE741F00801E9E741F01001E6E76C
:104360002A280FD1D9F8002052F8040BC9F80020F0
:1043700000280F9003D540420F9041F004010AF14C
:10438000010A14E00F92DFF8EC3B0AE00F98984224
:1043900005DA00EB800402EB4402303A0F920AF196
:1043A000010A9AF80020A2F130000A28EED39AF808
:1043B00000002E2803D04FF0FF320E9229E01AF8A9
:1043C000010F2A2809D1D9F8000050F8042BC9F8A8
:1043D00000000E920AF1010A1BE02D280CBF0AF121
:1043E000010A002000220E92DFF8884B0BE040B952
:1043F0000E9AA24205DA02EB820503EB4503303B3D
:104400000E930AF1010A9AF80030A3F130020A2A49
:10441000EDD3ADF840100FF660309AF8001001F0BF
:10442000F7FC08B11AF8010B8DF842009DF8420024
:10443000682805D19AF8000068280CD1622106E0AE
:104440006C2804BF9AF800006C2804D171218DF803
:1044500042100AF1010A12A806901AF801BBBBF13A
:1044600025012CD01C3900F09481091F022940F24B
:104470009081133900F0AB84093900F08A81891EDC
:1044800000F04085491E00F0ED84491E022940F2EB
:104490008081091F00F0E684491F00F0EF80491E6B
:1044A00000F09584491E00F0D780C91E0CD0891EEB
:1044B00000F08D84C91E00F08A8400F02EBD012317
:1044C0000793252100F026BDD9F8000050F8044BD1
:1044D000C9F80000002C059440F0AB802B99487877
:1044E000002800F0A1804FF0FF340FF6942001F077
:1044F0009BFC241A40F0398500F01BBD01236A465D
:1045000002A9304600F000FE002840F02E85641E0F
:10451000F4D13096079C12AF74B1309E17F8011B8E
:104520000498B0470028049000F01F850D98401CA7
:10453000641E0D90F2D130960A9C3021002C8DF82B
:1045400000100CDD309E01236A4602A9304600F0BF
:10455000DBFD002840F00985641EF4D13096059FEC
:10456000089C74B1309E17F8011B0498B0470028CE
:10457000049000F0FA840D98401C641E0D90F2D156
:1045800030960B9C3021002C8DF800100CDD309EF5
:1045900001236A4602A9304600F0B6FD002840F02B
:1045A000E484641EF4D1309605980899099C471854
:1045B00074B1309E17F8011B0498B047002804908E
:1045C00000F0D3840D98401C641E0D90F2D13096FB
:1045D0000C9C3021002C8DF800100CDD309E012346
:1045E0006A4602A9304600F08FFD002840F0BD84E5
:1045F000641EF4D130969DF8400041077FF584AEEB
:104600002020002D8DF800007FF77EAE309C012326
:104610006A4602A9204600F077FD002840F0A584F4
:104620006D1EF4D130946FE60FF63C30059000F02B
:1046300080BC0E9D002D04D5204601F0CDFB044624
:1046400007E02A46204601F00FFC002814BF041B97
:104650002C46089400F06DBCD9F8001051F8040BFA
:10466000C9F8001020F00004002121F0FF35CDE949
:10467000024512AB0593782100F040BC2B99487895
:1046800020B14FF0FF340FF6B02030E79DF8420024
:10469000622860D0682817D06A283FD06C2806D0DE
:1046A000712847D074282CD07A281DD062E0D9F820
:1046B000001051F8040BC9F80010002866D14FF023
:1046C000FF340FF68C2012E7D9F8001051F8040BD4
:1046D000C9F8001020B94FF0FF340FF6742006E738
:1046E0000D99018000F025BCD9F8001051F8040B99
:1046F000C9F80010002849D14FF0FF340FF65020C0
:10470000F5E6D9F8001051F8040BC9F8001000289C
:104710003CD14FF0FF340FF63820E8E6D9F800100E
:1047200051F8040BC9F8001080B94FF0FF340FF6B0
:104730002020DCE6D9F8001051F8040BC9F800106D
:1047400020B94FF0FF340FF60820D0E60D9AD317AA
:10475000C0E90023EDE3D9F8001051F8040BC9F8C3
:10476000001020B94FF0FF340FF6E410BFE60D99AA
:104770000170DEE3D9F8001051F8040BC9F80010FD
:1047800020B94FF0FF340FF6C810B0E60D99016064
:10479000CFE39DF842004C2807BFD9F80010CA1D8E
:1047A000D9F80000C21D22F00702C9F80020D2E9A2
:1047B00000010832C9F80020CDE90201C80F02D07B
:1047C00007982D210AE0BDF84000810702D507981F
:1047D0002B2103E0C00705D50798202112AA115408
:1047E000401C079012A807994BF0200300EB010C26
:1047F000DDE90201CDE92C01612BCDF814C021AC1B
:104800000BD00E98002848BF062105D404BF4BF0FA
:104810002000672801D101210E91DDE902014F003E
:1048200047EAD0777E15FF174FF0FF32974208BF57
:10483000964210D1090341EA10510003002908BF34
:10484000002808D0ABF1610503211A2D089118D377
:104850000FF61C1110E0DDE902014A00521512F1B9
:10486000010F11D108030FD1ABF1610503211A2DFE
:1048700008911FD30FF6001103226046FCF776FE65
:1048800057E30FF6E801F7E7DDE902016A4601F0B8
:1048900017FBCDE902014BF02000612811D10598EA
:1048A00030210170821C0592BBF1610F0CBF782191
:1048B000582102E00FF6BC01DEE741700798801C2A
:1048C0000790DDE9020120F0000231F0004308BF4B
:1048D000002A02D10026002542E14BF02008B8F161
:1048E000610F40F092800E98002847BF212101916E
:1048F000401C0190019FDDE92C017F1C0022002358
:10490000DDE9024501F014FB38BF85F00045009950
:104910008DF88420091F002F00910DF1850632DDEE
:10492000204629460022002301F01CFB2BD21C222A
:1049300001F032FB04460D4601F0B0FBFF1F002FD3
:10494000804609DD01F0B1FB02460B4620462946B0
:1049500001F0B2FB04460D46F01D0721B8F1000F2F
:104960000CDD491E5EBF08F00F0200F8012D4FEA72
:104970002818F3D502E0002200F8012D491EFAD5CF
:10498000C61D002FCCDC0DF18500361A01980DF103
:1049900085048642D8BF304600282FD4B04206DABC
:1049A0000DF185010A5C082AA8BF0F2100DA002159
:1049B000024621AB134400E0401E13F80159521E79
:1049C0008D42F9D00F2904D10DF185018B5C5B1C60
:1049D0008B54002A04D50099091D21AC401C00917C
:1049E000411E0BD4621813783033DDB23A2DA4BFC8
:1049F0005B443A3B491E02F80139F4D50E9900296F
:104A000040F1AC80421E0E92A8E00099DFF8E82643
:104A100047F29750414391FBF2F20092DDE92C45B9
:104A2000C2F10702002A25F0004504DD2046294690
:104A300000F03EFB0BE052420020DFF8C01600F011
:104A400037FB02460B462046294601F03EFB044652
:104A50000D46B8F1660F06BF009F0A3706270E986D
:104A60003F18142FC8BF142730208DF884000DF193
:104A70008506002F34DD2046294601F02FFB014634
:104A80000A4606F1080304200A26B2FBF6F606EBF6
:104A9000860EA2EB4E02303203F8012C0A22B6FB3E
:104AA000F2F202EB820EA6EB4E063036401E03F801
:104AB000026DE9D1083F002F03F10806D9DD084651
:104AC00001F013FB02460B462046294601F0F4FA9A
:104AD0000022DFF82C3601F00FFB04460D46CAE732
:104AE0000DF18500361A0DF1850404E00098401E92
:104AF000761E0090641C20783028F7D0B8F1660F3D
:104B000002D10098401C04E0B8F1650F0CBF0120F1
:104B100000200E9940188642B8BF701E00281DD490
:104B2000B04204DA215C3429C8BF392100DC3021CD
:104B30000246631E9D1800E0401E15F80169521ED2
:104B40008E42F9D0392902D1A15C491CA154002A16
:104B500004D50099491C1C46401C00910646009D46
:104B60000E9F30B2002802DC01260FF210644BF0D9
:104B70002000662808BF6D1C15D067280FFA85F83D
:104B800041D118F1040F44DBB84542DA9DF84000EA
:104B90006D1C010703D430B2B842D8BF074628B213
:104BA0003F1A48BF00270FFA85F8B8F1000F00F34D
:104BB000AF800898411C0891302205990A54002FB3
:104BC00003DC9DF84000010705D50898411C0891B9
:104BD0002E2205990A5417EB080FB8BF7D422DB25B
:104BE0006842ED1932B20B909542B8BF2E46059B34
:104BF000089836B20996324621461844FCF7B6FCAE
:104C0000AD1B0C95CCE0BBF1610F15D14FF0700BD3
:104C100017E030B2B84204DA9DF840100A0758BFD6
:104C200007467F1E48BF0027BBF1670F14BF4FF038
:104C3000450B4FF0650B04E0BBF1410F08BF4FF08F
:104C4000500B0898411C0891002F059914F8012B6E
:104C50000A5403DC9DF84000010719D50898411C4F
:104C600008912E2205990A54002F11DD761E30B2CC
:104C70008742B8BF3E460598089B32B22146184489
:104C8000FCF774FC089836B23018BF1B08900B97DD
:104C9000059808990844B8F1000F80F800B003D4D3
:104CA0002B224270821C04E02D2145464170821C5B
:104CB0006D4200212CAB28460AE004460A2094FBF2
:104CC000F0F000EB8005A4EB450403F8014B491C10
:104CD00000B20028F1DC012906DC4BF02000652839
:104CE00004BF302002F8010B00292CAB08D1302082
:104CF00002F8010B06E0491E585C303002F8010B47
:104D00000029F8DC059908980844121A099247E02E
:104D100030B229B288421BDA0598089B32B221468C
:104D20001844FCF723FC089936B271180891A8EBD7
:104D30000600002F0B9003DC9DF84000020705D50C
:104D4000059A2E2050540999491C09910C9727E087
:104D50000598089B2AB221461844FCF707FC0898DE
:104D6000761B4044002F089003DC9DF840100A0792
:104D700004D5411C08912E2205990A5430B287426D
:104D8000B8BF3E460598089B32B204EB08011844B0
:104D9000FCF7ECFB089836B23018BE1B08900B9657
:104DA0009DF8400000F01400102840F0C280079ADF
:104DB00008980B99821809988A1882180C980F99EC
:104DC0008018884280F2B580081A0A90B1E09DF8F8
:104DD0004200622808D068280ED06A2814D06C28B7
:104DE0001FD0712810D01CE0D9F8001051F8040B26
:104DF000C9F80010C0B21AE0D9F8001051F8040B3D
:104E0000C9F8001080B212E0D9F80000C21D22F0EB
:104E10000702C9F80020D2E900010832C9F80020D1
:104E200006E0D9F8001051F8040BC9F80010002171
:104E3000CDE902019DF8400001075AD5DDE90223C2
:104E4000002B08BF002A54D04BF02000782850D106
:104E5000079812A930220A54401C431C079301F8FA
:104E600000B046E09DF84200622808D068280ED0C5
:104E70006A2814D06C281FD0712810D01CE0D9F8F3
:104E8000001051F8040BC9F8001040B21AE0D9F82C
:104E9000001051F8040BC9F8001000B212E0D9F864
:104EA0000000C21D22F00702C9F80020D2E900016B
:104EB0000832C9F8002006E0D9F8001051F8040BB8
:104EC000C9F80010C117CDE90201002902D50798E1
:104ED0002D210AE0BDF84000810702D507982B215B
:104EE00003E0C00705D50798202112AA1154401CE1
:104EF000079012A8079901440591594602A800F0AD
:104F00004DF816E001200790D9F8000050F8041B76
:104F1000C9F800008DF848100BE001212522BBF1F3
:104F2000000F07918DF8482003D0022207928DF8D8
:104F300049B00F9D07990A986D1A08992D1A0B9878
:104F40006D1A09992D1A0C986D1A9DF840102D1A9A
:104F500048073FF5DFAA2021002D8DF800107FF7CC
:104F6000D9AA309E2C46FFF7C9BA4FF0FF3031B0B6
:104F7000BDE8F08FCBCCCC0C686A6C747A4C000026
:104F80007072696E74665F733A2062616420257383
:104F900020617267756D656E740000002DE9FC4735
:104FA00007468A463C6950466F2808BF082505D049
:104FB000FFF78EF9782814BF0A251025D7E90001DC
:104FC0003C2680468946BAF1640F18BFBAF1690FD2
:104FD00005D1002903D5D8F1000869EB4909B9F1D9
:104FE000000F08BFB8F1000F0CD1386B50B9082D75
:104FF0003AD197F83800010736D530223B2684F89D
:105000003B2031E08DF800A0404649462A46EB1788
:1050100001F07CF83032D0B2761E3A2801960EDAD2
:10502000A255404649462A46EB1701F06FF88046E4
:105030005FEA010908BFB8F1000F05D108E09DF84B
:1050400000001218513AEBE7F868A1198842DBD347
:10505000082D09D197F83800010705D5A05D302843
:1050600002D0761E3020A055C6F13C03BB61A119C9
:10507000F960386B834208DAC31A3B624FF6EF706F
:10508000398F01403987BDE8F38700280ED597F89E
:10509000380000F01400102808D17A6B7969386A5A
:1050A000521A121AD21A002AC8BF3A62BDE8F38710
:1050B0002DE9D04306460F4614464FF00008DFF8AE
:1050C000449012E0E00707D542464B463046394649
:1050D00001F012F806460F464046494642464B4606
:1050E00001F00AF8641080468946002CEAD1304667
:1050F0003946BDE8D0830000A08601000000F03FE3
:1051000084D7974100002440F8B505460E4617465F
:105110001C4600205CB117F8011BB068A847B060BE
:1051200030B1F06A401CF0620020641EF3D1F2BD81
:105130004FF0FF30F2BD00007072696E74665F73ED
:105140003A20256E20646973616C6C6F776564002A
:105150007072696E74663A2062616420256E206107
:105160007267756D656E7400000000006E616E0000
:105170004E414E00696E6600494E46003000000008
:10518000DFF8C4110868C0F34000002801D00220F5
:1051900002E0086810F001007047DFF8B001006815
:1051A00010F0010070470000C21E022A01D3012046
:1051B00002E0C01E0860002070471CB5FF2469464D
:1051C000FFF7F2FFC0B2002802D02000C0B207E013
:1051D000DFF8FC01009950F8210010F00100C0B286
:1051E00016BD0000002801D0032801D3012002E0F1
:1051F000401E0860002070471CB5FF246946FFF779
:10520000F1FFC0B2002802D02000C0B208E0DFF8F1
:10521000C401009909010844C06810F00100C0B23F
:1052200016BD0000DFF8BC010068800810F0010026
:10523000704738B504002000C0B2082811D3DFF849
:1052400098511822DFF89411280000F00DFC00207E
:10525000E87540F65B00DFF888110860002000F078
:105260003BFCDFF8CC112000C0B251F82000C0F3A5
:105270000020002805D0E4B251F8240010F00F00FF
:1052800000E0FF2032BD38B504002000C0B208287D
:1052900011D3DFF844511822DFF84011280000F044
:1052A000E3FB0020E8754FF40960DFF83411086073
:1052B000002000F011FCDFF87801E4B250F824007F
:1052C000C0F30110C0B232BDDFF868211368C3F328
:1052D000072303601068C0F3C40008607047DFF85C
:1052E00058211368C3F3072303601068C0F3C40098
:1052F0000860704738B50400072C11D3DFF8D85088
:105300001822DFF8C411280000F0AEFB0020E87579
:105310004FF4CE70DFF8C8100860002000F0DCFB0E
:10532000DFF8A00150F8240010F00700010009B2D6
:10533000042907D1DFF8880150F8240010F01F007D
:1053400050F4807000B232BD24152640401526402E
:10535000DFF8B01209688A03920B0260090E11F09F
:105360000101C171DFF8A01209680A00D204D20C51
:1053700082800A00120C02F0FF020281090C01F087
:10538000FF014181DFF84411096811F00F02027337
:105390000A00C2F3031242730A00120AD204D20CAA
:1053A000C281090F11F003010174DFF86413096869
:1053B0000A00120A12F0070282710A00120CD205CA
:1053C000D20D4282890F11F0010101757047000072
:1053D000401626400019264098130928806D281091
:1053E000FC130928100027401CB50C006946FFF784
:1053F000DBFE0100C9B2002901D0C0B217E0DFF81E
:10540000B404009950F8210010F07F012160C0F32E
:1054100004216160C0F30441A1600100090F11F093
:1054200003016173C00E10F001002073002016BD4F
:105430004012264008002040080420401CB50C0003
:105440006946FFF7CFFE0100C9B2002901D0C0B202
:1054500035E0DFF8101500980001085800F0FF0251
:105460002260C0F304226260C0F30442A260000F15
:1054700010F00300207300980001084442681000F7
:10548000C00F6073C2F30270002801D0012000E059
:105490000020A07322F07F4222610098000108449E
:1054A00080680100C90F21750100090E11F001018A
:1054B0006175A075000C10F00700E075002016BDA6
:1054C0000001264000122640046E281038152640A0
:1054D00080B50100DFF868051822FCF757F80120B5
:1054E000DFF860150870002002BDDFF85C15096860
:1054F000C90F002908D0DFF84C150978002907D119
:105500000021016003207047002101600320FAE7B9
:10551000DFF82C15096801600020F4E710B50400DD
:10552000FFF72EFE002803D10020206003200DE0AD
:10553000DFF810050078002805D0DFF80405806842
:105540002060002002E000202060032010BD000049
:10555000DFF8F0140978002905D0DFF8E414496871
:105560000160002002E00021016003207047DFF8A5
:10557000DC140968C90F002908D0DFF8C8140978BD
:10558000002907D10021016003207047002101603C
:105590000320FAE7DFF8A814C96801600020F4E7E7
:1055A000DFF8AC140968C90F002908D0DFF894149B
:1055B0000978002907D100210160032070470021EC
:1055C00001600320FAE7DFF8781409690160002020
:1055D000F4E710B50400FFF725FE002803D10020F2
:1055E000206003200DE0DFF85C040078002805D07F
:1055F000DFF84C0440692060002002E000202060B9
:10560000032010BD301526403415264010B50C007F
:10561000C0B2FFF76FFE00280ED0012810D002287C
:1056200012D0B0F5887F13D040F21111884213D008
:10563000B0F58A7F14D017E02000FFF756FF16E080
:105640002000FFF785FF12E02000FFF767FF0EE064
:105650002000FFF78CFF0AE02000FFF7BAFF06E00A
:105660002000FFF79DFF02E000202060032010BD16
:1056700080B501000020FFF7C9FF02BD80B50322FD
:10568000D2B2824203D200200860012003E0401C15
:10569000C0B2FFF7BBFF02BD18B587B00400684673
:1056A000FFF7E6FF0100C9B2002903D00021216005
:1056B000C0B22BE001A8FFF74BFE9DF814000228B2
:1056C00003D100982060002020E0DFF88803006804
:1056D000C00F002808D0FFF760FDC0B2002807D136
:1056E00000202060032011E00098206000200DE0E1
:1056F000009901984143BDF80800B1FBF0F09DF816
:105700000B10491CB0FBF1F02060002008B010BD68
:105710003C152640F0B58BB005000C00694628000A
:10572000C0B2FFF7ABFF0100C9B2002903D00021CE
:105730002160C0B2BCE02800C0B202284CD307A947
:105740002800C0B2401CFFF74FFEC0B2002811D0A5
:10575000DFF804631822DFF80413300000F084F946
:105760000020F07540F66310DFF8F41208600020A6
:1057700000F0B2F94F482900C9B200EB810050F89F
:10578000080CC00F002807D09DF82900022807D177
:105790000098206000208BE000982060002087E0C7
:1057A000EDB26D1C2800FFF708FD0100C9B2002909
:1057B00002D0C0B2FF2803D100202060032077E090
:1057C0000099079841430898B1FBF0F00999B0FBA4
:1057D000F1F0206000206BE001A92800C0B2401C5D
:1057E000FFF72CFEC0B2002811D0DFF86C6218223F
:1057F000DFF86812300000F037F90020F07540F64D
:105800007F10DFF85C120860002000F065F9554851
:105810002900C9B209014058C00F002807D09DF8DF
:105820001000022807D100982060002040E0009876
:10583000206000203CE0EDB26D1C2800FFF7DCFC8E
:105840000100C9B2002902D0C0B2FF2803D1002054
:10585000206003202CE09DF8110001281DD1009A42
:105860000023019E00273F0647EA162736060598C3
:10587000002136184F41A6FB020106FB031107FB6E
:105880000211029A039BA3FB022300F03FFC000ECF
:1058900040EA0120090E206009E000990198414387
:1058A0000298B1FBF0F00399B0FBF1F0206000200A
:1058B0000BB0F0BD0016264010B50323421E0400B5
:1058C000E4B2002C03D10800FFF7E6FE0CE0140060
:1058D000DBB2E4B2A34204D31000C0B2FFF71AFF58
:1058E00002E0C0B2FFF792FE10BD38B505000C0013
:1058F0002800C0B2FFF79DFC0100C9B2FF2904D106
:105900002000FFF7F2FDC0B21BE06946C0B2FFF70E
:10591000D3FF0100C9B2002903D000212160C0B229
:105920000FE02800C0B2FFF7AEFCC0B2002805D0DF
:1059300002280BD006D303280CD00FE0009820607B
:10594000002032BD009840082060F9E700988008E8
:105950002060F5E70098C0082060F1E70020206093
:105960000320EEE7001926401FB5040002A901201C
:10597000FFF7BBFF0100C9B2002903D0002121605D
:10598000C0B21AE0694601A8FFF79EFC0198002109
:10599000421C71F1FF335B0143EAD263520100986C
:1059A000002112184B4102980021490141EAD061BF
:1059B000400100F0ABFB2060002004B010BD1FB51B
:1059C000040002A90120FFF790FF0100C9B20029DD
:1059D00003D000212160C0B21AE0694601A8FFF798
:1059E0007EFC01980021421C71F1FF335B0143EA08
:1059F000D26352010098002112184B4102980021F5
:105A0000490141EAD061400100F080FB20600020A4
:105A100004B010BD80B5DFF84C100A68C2F3032251
:105A20000E2A07D00968C1F303210D2905D1FFF71C
:105A3000C6FF02BDFFF798FFFBE70120F9E7000072
:105A4000801309284C1409281815264008152640EB
:105A50000C1526403015264098130928046E28108E
:105A6000FC1309280000204001B58B071AD18307D9
:105A700024D1121F21D351F8043BA3F1013C2CEA9D
:105A8000030C1CF0803C04BF40F8043BF1E79CFA97
:105A90008CFCBCFA8CF1C1F118018B40CB4040F872
:105AA000043B13E0042A09D311F8013B521E00F80D
:105AB000013B5BB18B07F7D1D9E7121D5AB111F841
:105AC000013B521E00F8013B03B1F8D111001CBF8D
:105AD0000022FCF765FD01BD01BEFEE780B5234A4B
